:020000040800F2
:1000000000200020B53900083D3800083F380008BE
:1000100000000000000000000000000000000000E0
:10002000000000000000000000000000413800084F
:1000300000000000000000004338000845380008B8
:10004000053A0008053A0008053A0008053A000894
:10005000053A0008053A0008053A0008A9380008E2
:10006000053A0008053A0008053A0008053A000874
:10007000053A0008053A000800000000B5380008FD
:1000800000000000053A0008000000000000000029
:10009000DD38000800000000053A0008053A0008B5
:1000A000053A0008053A0008053A0008FD3800083E
:1000B0000D390008053A0008053A0008053A00081D
:1000C00010B5064C2378002B07D1054B002B02D02E
:1000D000044800E000BF0123237010BDE8010020A8
:1000E00000000000F8430008044B10B5002B03D0BB
:1000F0000349044800E000BF10BDC04600000000F6
:10010000EC010020F8430008002243088B4274D31E
:1001100003098B425FD3030A8B4244D3030B8B4208
:1001200028D3030C8B420DD3FF22090212BA030C11
:100130008B4202D31212090265D0030B8B4219D3F2
:1001400000E0090AC30B8B4201D3CB03C01A524112
:10015000830B8B4201D38B03C01A5241430B8B425A
:1001600001D34B03C01A5241030B8B4201D30B0343
:10017000C01A5241C30A8B4201D3CB02C01A52416A
:10018000830A8B4201D38B02C01A5241430A8B422D
:1001900001D34B02C01A5241030A8B4201D30B0216
:1001A000C01A5241CDD2C3098B4201D3CB01C01A30
:1001B000524183098B4201D38B01C01A524143093A
:1001C0008B4201D34B01C01A524103098B4201D328
:1001D0000B01C01A5241C3088B4201D3CB00C01A95
:1001E000524183088B4201D38B00C01A524143080D
:1001F0008B4201D34B00C01A5241411A00D2014632
:10020000524110467047FFE701B5002000F006F8A4
:1002100002BDC0460029F7D076E770477047C04658
:10022000002B11D1002A0FD1002900D1002802D0C3
:100230000021C943081C07B4024802A140180290DB
:1002400003BDC046D9FFFFFF03B4684601B502985D
:1002500000F01EF8019B9E4602B00CBC7047C046E1
:100260009E2110B5C905041C00F05AFC002803D1DA
:10027000201C00F0C5FB10BD9E21201CC90500F00C
:10028000FBF900F0BDFB80231B069C466044F2E7AF
:10029000F0B54F464646D646C0B5040082B00D00C4
:1002A000914698468B422FD82CD04146484600F0C4
:1002B0005FFC29000600200000F05AFC331A9C461F
:1002C000203B9A4600D576E04B46524693401F00AD
:1002D0004B46624693401E00AF4228D825D0534675
:1002E000A41BBD41002B00DA7BE00022002300921A
:1002F00001930123524693400193012362469340A8
:10030000009318E08242D0D900220023009201938A
:100310000A9B002B01D01C605D600098019902B01F
:100320001CBC90469946A246F0BDA342D7D90022F4
:100330000023009201936346002BE9D0FB07984607
:10034000414672080A437B0866460EE0AB4201D183
:10035000A2420CD8A41A9D41012024196D4100210C
:10036000013E24184D41002E06D0AB42EED9013E8D
:1003700024196D41002EF8D10098019953460019B7
:100380006941002B23DB2B005246D3402A006446F0
:10039000E2401C0053461500002B2DDB260057467B
:1003A000BE40330026006746BE403200801A9941A5
:1003B00000900191ACE7624620239B1A4A46DA403E
:1003C0006146130042468A4017001F4380E7624699
:1003D00020239B1A2A0066469A402300F3401343C9
:1003E000D4E76246202300219B1A0022009101924B
:1003F0000122DA40019280E72023624626009B1A00
:10040000DE402F00B0466646B74046463B003343C9
:10041000C8E7C046F0B54E4657464546DE46E0B50D
:1004200043025B0A450083B00F1C99462D0EC60F90
:10043000002D57D0FF2D24D08020DB00C0041843AE
:10044000002381469A469B467F3D7C027A00FB0F43
:10045000640A120E984623D0FF2A4BD0E300802472
:100460000020E4047F3A1C43AD186B1C47460193FF
:10047000534677403A000F2B48D87D499B00CB5814
:100480009F46002B00D085E008339A46063B9B46EA
:100490007C027A00FB0FFF25640A120E9846DBD11E
:1004A000002C00D090E0524601231A4392460120CE
:1004B000DBE74C4658461700022824D0032800D119
:1004C000CFE00022002301284DD15802D205400A76
:1004D000FF071043384303B03CBC90469946A24600
:1004E000AB46F0BD002B5BD104239A46033B0025AD
:1004F0009B46AAE7FF35002C60D1524602231A43DF
:1005000092460220B1E7FF220023DEE74B461B0C98
:100510009C464B462604360C180461463300220CD8
:100520006446000C43434E435043544380191A0C15
:100530001218964203D9802149028C4664441B0458
:100540001B0C1004C01883015E1EB341800E1843BB
:10055000130C1B199B0103431C00230179D50123B4
:1005600062081C401443019A7F32002A4DDD630764
:1005700004D00F232340042B00D00434230103D5DF
:100580003C4B019A1C408032FE2ABCDCA3015B0A72
:10059000D2B29AE70C239A46093BFF259B4654E7C3
:1005A000180000F0C7FA4A46431F76259A400023F8
:1005B0006D4291462D1A9A469B4646E752460323C2
:1005C0001A439246032050E7200000F0B3FA431F7D
:1005D0002D1A9C40763D002047E780230027DB034F
:1005E000FF2272E7424666E74C463200584662E711
:1005F00080234A46DB031A4222D01C4220D12343E7
:100600005B025B0A4746FF225FE701239A1A1B2A17
:1006100021DC23000199D3409E318C401A00230035
:100620005C1EA34113435A0704D00F221A40042A28
:1006300000D004335A0111D49B015B0A002244E725
:1006400080234A46DB0313435B025B0A3700FF2229
:100650003BE7019587E70022002336E701220023CC
:1006600033E78023DB0323435B025B0AFF222CE793
:10067000A4440008FFFFFFF7F8B54746CE46440004
:10068000C20F80B547024802400A844666464800C9
:100690007F0A240EF60025009046FB00000EC90FCD
:1006A000B146FF2800D185E001267140261A91420B
:1006B00057D0002E43DD002800D07FE049460029B6
:1006C00000D1AAE0013E002E00D0F7E05B1A5A01EB
:1006D00000D48BE09B019C09200000F02BFA053828
:1006E0008440854200DDD3E0451B230020200135F6
:1006F000EB40451BAC40621E944123430724002578
:100700001C40012241460A40002C04D00F21194010
:10071000042900D00433590100D480E00135ECB243
:10072000FF2D00D0A3E0FF2400235B02E405580A5C
:10073000D207204310430CBC90469946F8BD002ECA
:1007400074D1601CC0B2012800DCA7E04A469C1AA4
:10075000620100D5B6E0002CBED1002200240023A7
:10076000E3E7002E00DC85E0002846D0FF2C49D0CE
:1007700080224846D2041043814601221B2E09DC08
:1007800020204C46801B84404A462000F240441EF4
:10079000A04102439B185A0128D50135FF2D00D1F5
:1007A000A8E00122072494491A405B080B40134338
:1007B0001C40A6E7002E00D078E775E7FF2C54D048
:1007C00080224946D2041143894601221B2E09DCAE
:1007D00020214846891B88404A460100F240481EB5
:1007E00081410A439B1A5A0100D573E70122414611
:1007F0000A40590700D089E711E04846002858D13F
:10080000FF2C0CD1DB08002B00D18CE78020C0032B
:1008100003435B025B0AFF2487E7FF2C25D0DB083C
:10082000FF2DF0D05B025B0AECB27EE7002C4DD0CE
:10083000FF2818D08024E404724223431B2A00DDE1
:10084000C4E01C002025D440AA1A93405A1E9341AC
:1008500023434A460500D31A884638E7721CF8D06D
:10086000F243FF28EAD10A004B46FF25D7E79B0158
:100870005B0A5AE7002E41D1651CE9B2012945DD2A
:10088000FF2D00D14FE707244B445B081C4038E79D
:1008900007225A4B2D1A2340144032E7002C1DD159
:1008A000002B7AD14B46002B00D191E00A000025A5
:1008B000B5E7013E002E19D14B446CE7FF2C84D1E3
:1008C000FF25ACE74A468846D41A05E7002BC5D178
:1008D0000A00FF28C8D005004B46A0E7002B49D1ED
:1008E0004B46002B77D00A00FF2598E7FF2C00D05D
:1008F00043E787E70A00FF24002316E7002C15D101
:10090000002B57D1FF28E6D14B467BE7002C20D1A6
:10091000002B57D04946002953D04B445A0168D583
:100920000724364A1C4001251340EAE6FF28EBD095
:100930008022D204764213431B2E53DC2025AD1BAC
:100940001A00AB40F2405C1EA34113434B44050028
:1009500021E7002BD8D04946002900D152E7802159
:10096000C9030F4200D14DE76046084200D049E775
:100970004B4647E74846FF25002800D14FE7802235
:10098000D203174204D06046104201D14B4688463C
:1009900001224146FF250A4041E7484600281FD072
:1009A0001A1A500120D54A460724D31A1C408846FB
:1009B0000025A6E6741CC9D0F643FF28BCD14B46DF
:1009C00020E799464B460025DB082BE7012340E74B
:1009D00000220023A9E680230022DB03FF24A4E6F3
:1009E00000251CE70123B1E7002AF1D01300002500
:1009F000FCE60025FAE6C046FFFFFF7DFFFFFFFB98
:100A000041024200C30F490A120E00207E2A0DD96E
:100A10009D2A0CD8802000040143952A0ADC9620E8
:100A2000821AD1404842002B00D108007047034A87
:100A30009818FBE7963A9140F4E7C046FFFFFF7F26
:100A400070B5041E34D000F075F89E22121A962A52
:100A500007DCD2B208282EDD083884406002400A44
:100A600021E0992A09DD030021001B3399404B1E28
:100A7000994105231B1ADC400C43052801DD431F67
:100A80009C4023000D490B40650709D00F252C40E1
:100A9000042C05D004335C0102D59F220B40121AAE
:100AA0009B01580AD2B24002D205400A104370BDE1
:100AB00000220020F7E76002400AF4E7FFFFFFFB97
:100AC0008446081C6146FFE71FB500F0D3F80028F4
:100AD00001D40021C8421FBD10B500F055F84042B6
:100AE000013010BD10B500F0C5F8002801DB002072
:100AF00010BD012010BDC04610B500F0BBF80028A5
:100B000001DD002010BD012010BDC04610B500F071
:100B100063F8002801DC002010BD012010BDC04694
:100B200010B500F059F8002801DA002010BD0120AE
:100B300010BDC0461C2101231B04984201D3000CA8
:100B400010391B0A984201D3000A08391B09984240
:100B500001D30009043902A2105C40187047C04656
:100B60000403020201010101000000000000000076
:100B700010B5002903D1FFF7DDFF203002E0081C8B
:100B8000FFF7D8FF10BDC04670B542004E024C00C2
:100B900045026D0A120EC30F760A240EC90FFF2AF2
:100BA0000FD0FF2C11D00120A24200D070BDB54261
:100BB000FCD18B420DD0002AF8D12800451EA84157
:100BC000F4E70120002DF1D1EBE70120002EEDD15B
:100BD000E9E70020EAE7C04670B54A004E02450248
:100BE00044006D0A240EC30F760A120EC90FFF2CA3
:100BF00015D0FF2A0ED0002C15D1002A01D1002ECD
:100C00001CD0002D14D08B4227D00220013B18406D
:100C1000013870BD002EEED002204042F9E7002DD1
:100C2000FAD1FF2A0ED0002A0ED1002EEDD00BE013
:100C300001230139994308000130EAE70020002D23
:100C4000E7D0E2E7002EE7D18B42DED1944205DD0A
:100C50000221581E08400138DBE70024A24204DCD0
:100C6000B542D2D80020B542D3D2581E01239843B2
:100C70000130CEE730B5420044024D02C30F4800B8
:100C8000640A120E6D0A000EC90FFF2A12D0FF2847
:100C90000CD0002A12D1002819D1002D17D1002C18
:100CA0002BD00220013B1840013826E0002DF0D067
:100CB000022022E0002CFBD1FF281FD000281FD1EA
:100CC000002D1DD10220013B1840013815E0002CF9
:100CD0000ED08B42E5D10022904204DCAC42E0D839
:100CE0000020AC4209D2581E01239843013004E091
:100CF0000123013999430800013030BD002DD7D1BF
:100D00008B42CED18242E7DD0221581E08400138D5
:100D1000F3E7C0460023C25C0133002AFBD1581E12
:100D20007047000010B50400094B1868FA218900CB
:100D3000FFF7EAF900F078F8002801D0012010BD93
:100D4000013000222100404200F034F80020F6E794
:100D50001400002010B5084A136840210B431360AB
:100D60000020FFF7DFFF041E02D00124200010BD89
:100D700002F0CCFCFAE7C04600200240024A1368A9
:100D8000013313607047C04610060020014B1868FD
:100D90007047C0461006002070B50400FFF7F6FF4C
:100DA0000500631C00D00134FFF7F0FF401BA04298
:100DB000FAD370BD70B5002811DB8408134DC03420
:100DC000A400625903231840C000FC331E00864073
:100DD000B24389010B4083401343635170BDC0B2DD
:100DE0000F220240083A920806329200084BD318AC
:100DF0005D6803242040C000FF2214008440A54306
:100E000089010A4082402A435A60E7E700E100E096
:100E100000ED00E01F2318401E3B8340014A136091
:100E20007047C04600E100E001380A4B98420FD8F5
:100E3000094A50600948036A1B021B0AC0210906BF
:100E40000B43036200239360073313600020704755
:100E50000120FCE7FFFFFF0010E000E000ED00E0F4
:100E600010B52523C35C022B03D00423C3630120E8
:100E700010BD026813680E218B43136001680A6875
:100E800001239A430A601C22416C0A40016C1C0039
:100E900094404C602522835423330022C254836B38
:100EA000002B02D098470020E2E70020E0E7000096
:100EB000F0B5C64600B5002338E0052600E0002660
:100EC000AE4035003D430234A400554EA551554C6B
:100ED00025684246D4432E0026404A68D20302D5F4
:100EE000424615432E004F4D2E606D682E00264061
:100EF0004A68920302D5424615432E00494D6E6062
:100F0000AD682E0026404A68D20202D542461543FB
:100F10002E00444DAE60ED682C404A68920202D526
:100F200042462A4314003F4AD46001330A68140041
:100F3000DC4072D001249C4022409046F5D04D68A0
:100F4000022D01D0122D0ED1DD080835AD002F582D
:100F500007261E40B6000F22B24097430A69B240EE
:100F600016003E432E504D686E1E012E03D9112DE2
:100F700001D0122D12D185685F000326BE40B54313
:100F80002E00CD68BD40354385604568A5434A685D
:100F90001609012434409C402C43446007685E00DD
:100FA00003242500B540ED432F404A681440B44067
:100FB0003C430460C46825408C68B4402C43C46042
:100FC0004A68D200B1D5184D6C6B012634436C636E
:100FD0009C08A51CAD00124EAF5903261E40B5005B
:100FE0000F26AE40B743A026F605B04200D166E713
:100FF0000E4EB0420BD00E4EB0420AD00D4EB04253
:1010000009D00D4EB04200D157E7062658E7012619
:1010100056E7022654E7032652E704BC9046F0BD8B
:101020000000014000040140001002400004005094
:1010300000080050000C0050001C0050002A01D194
:10104000816270478161FCE74369594041617047A3
:1010500010B5054B5B69184200D110BD024B5861B9
:1010600001F04CFDF9E7C0460004014010B5264BE5
:10107000D9680C230B40082B42D00C2B11D0042B29
:1010800009D0214B5A68520B0723134001338020AB
:101090000002984010BD1C4B1B68DB0632D51B4874
:1010A000F8E78A0C0F231340194AD05C890D0322FC
:1010B00011400131144BDB68DB030DD4124B1B686C
:1010C000DB0613D54201121A93019B1ADB001B1891
:1010D0001802FFF719F8DDE74201121A93019B1A73
:1010E000DB001B185802FFF70FF8D3E74201121A72
:1010F00093019B1ADB001B189802FFF705F8C9E75C
:101100000448C7E70448C5E70010024000093D0055
:101110008044000800127A000024F400F0B583B087
:10112000041E00D197E2CA4BDA680C251540DA6834
:101130008026760216400368DB0736D5082D2CD0B2
:101140000C2D28D063688022520293424DD0A022F9
:10115000D202934250D0BE4B1A68BE490A401A6070
:101160001A68802149020A400192019A1A68BA4914
:101170000A401A606368002B4AD0FFF707FE070099
:10118000B34B1B689B0310D4FFF700FEC01B642801
:10119000F6D9032060E2002ED4D0AD4B1B689B0330
:1011A00003D56368002B00D158E223689B0764D500
:1011B000E368042D3CD00C2D38D0002B00D1AEE0DC
:1011C000A3490A680920824313430B60FFF7DEFD41
:1011D00006009F4B1B685B0700D597E0FFF7D6FD25
:1011E000801B0228F5D9032036E2994A1168802332
:1011F0005B020B431360BDE7954B19688022D20256
:101200000A431A601968802252020A431A60B1E741
:10121000FFF7BCFD07008E4B1B689B03C5D5FFF78E
:10122000B5FDC01B6428F6D9032015E2002EC4D1F9
:10123000874A1268520702D5002B00D110E2844E73
:10124000726886490A40216909020A43726032685D
:1012500009218A4313433360FFF708FFF26812093C
:101260000F2313407E4AD35CD8407E4B1860002089
:10127000FFF758FD002800D0EEE12368DB062CD5EF
:10128000002D5FD1724B1B689B0503D5E369002BD2
:1012900000D1E7E16E4A536873490B40616A0B4322
:1012A000536053681B021B0A216A09060B435360F3
:1012B000636A590B013180231B028B40D1680909F5
:1012C0000F220A4066498A5CD340664A13600020B8
:1012D000FFF728FD002800D0BEE123681B077DD55D
:1012E0006369002B67D05A4A136D01210B431365C4
:1012F000FFF74CFD0600564B1B6D9B076ED4FFF7A6
:1013000045FD801B0228F6D90320A5E150494B6812
:10131000524A13402269120213434B60ADE74C4A14
:10132000136801218B431360FFF730FD0600484B23
:101330001B685B07A1D5FFF729FD801B0228F6D9A2
:10134000032089E1E369002B22D0414A1168802300
:101350005B000B431360FFF719FD06003C4B1B6855
:101360009B0506D4FFF712FD801B0228F6D9032047
:1013700072E1374A53683C490B40616A0B43536042
:1013800053681B021B0A216A09060B435360A4E73A
:101390002F4A136835490B401360FFF7F7FC06002E
:1013A0002B4B1B689B0598D5FFF7F0FC801B022890
:1013B000F6D9032050E1264A136D01218B431365B2
:1013C000FFF7E4FC0600224B1B6D9B0706D5FFF7D9
:1013D000DDFC801B0228F6D903203DE123685B0772
:1013E00000D48CE01A4B9B6BDB001BD4184A916B2A
:1013F00080235B050B43936301261D4B1B68DB05B4
:1014000012D5A36880225200934235D0002B4BD1D5
:101410000F4B1A6D15490A401A651A6D15490A4095
:101420001A652FE00026E8E7114A116880235B0067
:101430000B431360FFF7AAFC07000D4B1B68DB058D
:10144000DFD4FFF7A3FCC01B6428F6D9032003E117
:1014500000100240FFFFFEFFFFFFFBFFFFE0FFFF6A
:101460008C44000814000020FF1FFFFFFFFEFFFF59
:1014700000700040FFFBFFFF7E4A116D80235B0080
:101480000B431365A368002B28D0FFF77FFC0700F0
:10149000784B1B6D9B0530D4FFF778FCC01B764B57
:1014A0009842F5D90320D7E0A022D200934209D078
:1014B000704B1A6D71490A401A651A6D70490A40DD
:1014C0001A65DFE76B4B196D013AFF3A0A431A655B
:1014D000196D802252000A431A65D3E7FFF756FCC4
:1014E0000700644B1B6D9B0507D5FFF74FFCC01B26
:1014F000614B9842F5D90320AEE0012E21D023683C
:101500009B063CD5A369002B21D05A4B996801203A
:10151000014399605A6B02435A635A4A116A802305
:101520009B010B431362FFF731FC0600514B9B6894
:101530009B0724D4FFF72AFC801B0228F6D903203E
:101540008AE04C4A936B50490B409363D7E7494A72
:10155000936801218B4393604A4A136A4B490B40BD
:101560001362FFF713FC0600424B9B689B0706D5EE
:10157000FFF70CFC801B0228F6D903206CE0A36A5D
:10158000002B00D170E00C2D49D0022B12D0394A2B
:1015900013683F490B401360FFF7F8FB0400354B1D
:1015A0001B689B0139D5FFF7F1FB001B0228F6D918
:1015B000032051E02F4A136835490B401360FFF7B1
:1015C000E5FB05002B4B1B689B0106D5FFF7DEFBF7
:1015D000401B0228F6D903203EE02649CB682D4A5D
:1015E0001340E26A206B0243606B02431343CB60FB
:1015F0000A6880235B0413430B60FFF7C7FB0400FA
:101600001C4B1B689B0106D4FFF7C0FB001B022884
:10161000F6D9032020E000201EE000201CE0012B72
:1016200024D0144BDA6880235B021340E16A8B42BA
:1016300001D0012010E0F0239B031340216B8B426B
:1016400001D0012008E0C0231B041A40636B9A42BA
:101650000ED0012000E0012003B0F0BD0120FBE727
:101660000120F9E70120F7E70020F5E70120F3E783
:101670000020F1E70010024088130000FFFEFFFF8A
:10168000FFFBFFFF00000140FFFFFFEFFFDFFFFF59
:10169000FFFFFFFEFFFF02FF70B504000D000028F2
:1016A00000D1BAE05F4B1A68012313408B420BD282
:1016B0005C490B68012293432B430B600B681A4073
:1016C000AA4201D00120A9E023689B0706D5564A0B
:1016D000D368F0218B43A1680B43D3602368DB07F9
:1016E00064D56368022B09D0032B29D0012B2DD0A0
:1016F0004D4A1268920506D401208FE04A4A1268CA
:10170000920300D48BE04849CA6803208243134304
:10171000CB60FFF73BFB06006368022B1CD0032B5A
:1017200028D0012B34D0404BDB680C221A423DD02C
:10173000FFF72CFB801B3D4B9842F4D903206DE052
:10174000394A12689201DED4012067E0364A1268F5
:101750005207D8D4012061E0334BDA680C231340E0
:10176000082B23D0FFF712FB801B304B9842F3D994
:10177000032053E02C4BDA680C2313400C2B15D0BC
:10178000FFF704FB801B294B9842F3D9032045E067
:10179000254BDA680C231340042B07D0FFF7F6FA29
:1017A000801B224B9842F3D9032037E01D4B1A6867
:1017B00001231340AB420BD91A490B680122934312
:1017C0002B430B600B681A40AA4201D0012025E090
:1017D00023685B0706D5144AD36815490B40E168B6
:1017E0000B43D36023681B0707D50F49CB68114A09
:1017F00013402269D2001343CB60FFF737FC0A4B3A
:10180000DA6812090F2313400B4AD35CD8400B4B04
:1018100018600020FFF786FA00E0012070BD01206B
:10182000FCE7C04600200240001002408813000080
:10183000FFF8FFFFFFC7FFFF8C44000814000020E3
:10184000014B18687047C0461400002010B5FFF720
:10185000F7FF044BDA68120A07231340024AD35CED
:10186000D84010BD001002409C44000810B5FFF79E
:10187000E7FF044BDA68D20A07231340024AD35C1D
:10188000D84010BD001002409C44000870B5040010
:1018900082231B0102681A425AD0704B9B6BDB00FB
:1018A00000D593E06D4A916B80235B050B439363F6
:1018B00001256B4B1B68DB0500D489E0674B1A6878
:1018C000C0239B031A4061680B40934200D194E00F
:1018D000C0239B020A001A409A4200D195E05F4B58
:1018E0001B6DC022920213401FD01140994202D0BA
:1018F0002268920608D4C0229202A1680A409A4245
:1019000013D023681B0510D5544B186D554A02405F
:101910001E6D8021090331431965196D524E314006
:1019200019651A65C30500D576E06368C022920286
:1019300019001140914200D17EE048490B6DC02250
:1019400092026068024013430B65012D00D17DE0D7
:101950002368DB0706D5414AD36C03218B43E1683A
:101960000B43D36423689B0706D53C4AD36C0C21F8
:101970008B4321690B43D36423685B0706D5374A41
:10198000D36C3A490B4061690B43D36423681B074E
:1019900006D5324AD36C36490B40A1690B43D36458
:1019A00023685B0606D52D4AD36C32490B40216A69
:1019B0000B43D36423681B064ED5284AD36C2E49AB
:1019C0000B40E1690B43D364002070BD002570E734
:1019D000234A116880235B000B431360FFF7D6F99D
:1019E00006001F4B1B68DB0500D567E7FFF7CEF944
:1019F000801B6428F5D90320E7E7C0239B03A06878
:101A00000340934200D063E769E7144B1B689B03D4
:101A100000D464E70120D8E7FFF7B8F906000F4BC0
:101A20001B6D9B0500D580E7FFF7B0F9801B134BBA
:101A30009842F4D90320C8E708490A6810480240D0
:101A4000C0208003034013430B6076E70A008B6BD2
:101A50000C490B4093637BE70020B6E7001002407F
:101A600000700040FFFFFCFFFFFFF7FFFFF3FFFFE9
:101A7000FFCFFFFFFFFFFFFBFFFFF3FF8813000017
:101A8000FFFFCFFFFFFFFFEF03688022D2059042E8
:101A900005D0124A904202D0114A904203D17022DE
:101AA00093434A6813438022D205904205D00B4AE3
:101AB000904202D00A4A904203D10A4A1340CA68AF
:101AC0001343802293430A69134303608B68C36204
:101AD0000B688362012343617047C04600080140E0
:101AE00000140140FFFCFFFF30B5036A046A0125C2
:101AF000AC4304628469EF35AC43120122430A24EB
:101B0000A34319438261016230BD000030B5036A0E
:101B10001024A34303628469036A054D2C40120319
:101B20002243A024A343090119438261016230BD0D
:101B3000FF0FFFFF0B0081687022914319430723B9
:101B4000194381607047000030B58468034D2C4014
:101B50001B021A4311432143816030BDFF00FFFF88
:101B600070B5041E14D03923C35C002B0AD039256C
:101B700002236355211D2068FFF786FF012363556B
:101B8000002070BD38330022C25401F0CDFDEEE7D5
:101B90000120F6E70268D36801210B43D360026895
:101BA000916807230B40062B03D0136801210B43D8
:101BB00013600020704700000268D36801218B4346
:101BC000D3600368196A044A114203D11A680121DB
:101BD0008A431A60002070471111000010B50400FC
:101BE0003823C35C012B66D038230122C254013351
:101BF0000132C254026893683048034093600B6816
:101C0000402B4ED015D9602B41D021D9702B2BD031
:101C100080229201934232D1CB684A688968206859
:101C2000FFF792FF226891688023DB010B439360EA
:101C300025E0102B07D004D9202B04D0302B02D064
:101C40001DE0002B1BD119002068FFF773FF16E081
:101C5000502B14D1CA6849682068FFF745FF50210E
:101C60002068FFF767FF0AE0CB684A688968206848
:101C7000FFF76AFF2268936877210B43936039234B
:101C80000122E254013B0022E254002010BDCA6848
:101C900049682068FFF73AFF60212068FFF74AFF94
:101CA000EDE7CA6849682068FFF71EFF40212068F9
:101CB000FFF740FFE3E70220E8E7C0468800FFFFA8
:101CC0007047704770477047704710B5040003684D
:101CD0001A6992070FD5DA6892070CD5032252428F
:101CE0001A610123037603689B699B0755D0FFF7B0
:101CF000E9FF0023237623681A69520712D5DA68B0
:101D000052070FD5052252421A6102232376236817
:101D10009A69C0239B001A4245D02000FFF7D2FFEA
:101D20000023237623681A69120710D5DA68120790
:101D30000DD5092252421A61042323762368DB69F8
:101D40009B0737D02000FFF7BDFF002323762368D1
:101D50001A69D20612D5DA68D2060FD5112252427C
:101D60001A61082323762368DA69C0239B001A428C
:101D700027D02000FFF7A6FF0023237623681A69E7
:101D8000D20702D5DA68D20722D423681A6952062C
:101D900002D5DA68520622D410BDFFF792FF200068
:101DA000FFF791FFA5E72000FFF78BFF2000FFF76B
:101DB0008AFFB5E72000FFF784FF2000FFF783FFCD
:101DC000C3E72000FFF77DFF2000FFF77CFFD3E78C
:101DD000022252421A612000FFF772FFD5E741222A
:101DE00052421A612000FFF76FFFD5E7F0B53823A4
:101DF000C35C012B1BD0382601239C468355392711
:101E00000133C3550268546893687025AC430D686C
:101E10002C438025AB431D004B682B435460026864
:101E200093606346C355002383550020F0BD022014
:101E3000FCE700000268136806490B401360026863
:101E400093682331FF318B43936020238367002302
:101E500003667047DFFEFFFF436F212B00D0704702
:101E60003133C35A9BB2002B0CD0C36C1A78036871
:101E70009A62C36C0133C3645222835A013B9BB202
:101E80008352ECE70268136880218B431360026879
:101E9000136840390B431360E1E7436F212B00D0F7
:101EA00070473133C35A9BB2002B0ED0C36C1B88D2
:101EB0000268DB05DB0D9362C36C0233C3645222FC
:101EC000835A013B9BB28352EAE702681368802180
:101ED0008B4313600268136840390B431360DFE7DC
:101EE00030B5436F202B36D1002936D0002A36D0AA
:101EF000836880246401A34220D07024045D012CF7
:101F00002FD0702401250555C16450214252023161
:101F1000425200224266C267213242678022520149
:101F2000934212D0104B436670230022C2540268C1
:101F3000136880210B43136000200DE00469002C1E
:101F4000DBD1CC07D9D5012006E00369002BE9D10C
:101F5000064B4366E8E7022030BD0120FCE7012084
:101F6000FAE70220F8E7C046591E00089B1E000849
:101F700030B5836F202B6DD1002900D16CE0002A91
:101F800000D16BE0836880246401A3421AD07024DE
:101F9000045D012C64D0702401250555416558214C
:101FA0004252023142520022026680225201934282
:101FB0000FD0002B1CD10369002B15D15C33FF22FD
:101FC000C2521CE00469002CE1D1CC07DFD501200E
:101FD00041E00369002B03D15C33224AC2520EE078
:101FE0005C23FF22C2520AE05C237F22C25206E039
:101FF0008022520593421CD05C230022C25200234F
:10200000C367223383670268936801210B4393609F
:1020100080235B0182689A4216D0134B03667023BB
:102020000022C25402681168B0330B4313600020D1
:1020300011E00369002B03D15C337F22C252DEE73B
:102040005C233F22C252DAE70369002BE5D1074B3C
:102050000366E4E7022030BD0120FCE70120FAE737
:102060000220F8E7FF0100008D200008F1200008A1
:10207000704710B50268136840218B43136020231A
:10208000436700234366FFF7F3FF10BD10B55C23E1
:10209000C35A826F222A05D00268936908210B4334
:1020A000936110BD0268526ADBB21340426D137037
:1020B000436D013343655A22835A013B9BB28352DD
:1020C000835A9BB2002BECD10268136807490B407E
:1020D0001360026893682331FF318B4393602023A0
:1020E00083670023036600F019FDDAE7DFFEFFFFD8
:1020F00010B55C23C25A836F222B05D00268936906
:1021000008210B43936110BD03685B6A1340426D65
:102110001380436D023343655A22835A013B9BB2BD
:102120008352835A9BB2002BEDD102681368084991
:102130000B401360026893682331FF318B43936037
:10214000202383670023036600F0E8FCDBE7C0463A
:10215000DFFEFFFF7047000070B504000168CB6927
:1021600008688D680F221A400AD19E0608D5860697
:1021700006D5236E002B00D189E02000984786E029
:10218000002A6BD001222A4003D1902676003042EB
:1021900064D0DD0706D5C50504D501250D62E16FC4
:1021A0002943E167990708D5002A06D0216802254E
:1021B0000D62E16F02352943E167590708D5002A0E
:1021C00006D0216804250D62E16F023D2943E167D5
:1021D000190709D5810601D4002A05D022680821F3
:1021E0001162E26F0A43E267E26F002A4FD09B065A
:1021F00006D5830604D5236E002B01D02000984716
:10220000E26F23689B685B0601D4130720D520008A
:10221000FFF710FE23689A68520615D59A68402188
:102220008A439A60E36E002B0AD01B4A9A63E06EE1
:10223000FEF716FE00282AD0E06E836B984726E052
:102240002000FFF787FF22E02000FFF783FF1EE05A
:102250002000FFF77FFF0023E36718E0DA0201D5D3
:102260006A0209D41A060ED502060CD5636E002B3D
:102270000DD0200098470AE080235B030B6220000A
:1022800000F050FB03E05B0601D5430600D470BDAF
:102290002000FFF7EEFEFAE79D22000810B5806AE5
:1022A00000235A228352083A8352FFF753FF10BD8E
:1022B000D0B504000168836802691343426913437F
:1022C000C26913430A68C048024013430B60226886
:1022D0005368BE490B40E1680B435360A169226813
:1022E000BB4B9A4201D0236A19439368B948034013
:1022F0000B4393602268B84B9A4216D0B74B9A4270
:1023000027D0B34B9A4239D01023B1498A4257D0D3
:1023100080221202E169914200D18CE0082B00D9A1
:1023200049E19B00AE4AD3589F46AE4BD96C03237C
:102330000B40012B09D0002B05D0022B3AD0032BE8
:1023400005D01023E1E70123DFE70423DDE70823BD
:10235000DBE7A44BD96C0C230B40042B0AD005D926
:10236000082B29D00C2B07D10823CEE7002B03D153
:102370000023CAE70423C8E71023C6E7994BDB6CA8
:10238000C02109010B408021C9008B420ED009D920
:10239000802109018B4211D0C02109018B4207D154
:1023A0000823B2E7002B03D10023AEE70423ACE7F8
:1023B0001023AAE70223A8E70223A6E70223A4E743
:1023C000022B2DD007D9042B30D0082B00D0F5E0FC
:1023D0008020000207E0002B00D0EFE0FFF736FA84
:1023E000002800D1ECE0626853009B18834200D9BA
:1023F000E8E01303834200D206E1070E060250080C
:102400000021801979410023FDF70AFF764BC2189D
:10241000764B9A4200D9F9E02368D860002085E025
:10242000704B1B68DB0604D47148DCE7FEF71EFE28
:10243000D6E77048D7E7082B62D89B006E4AD3587E
:102440009F46FFF703FA400063685B08C0186168A5
:10245000FDF75AFE03041B0C002068491A00103ACD
:102460008A4200D9D4E00F22190091435B08083A50
:1024700013400B432268D36058E0FFF7F7F94000A0
:1024800063685B08C0186168FDF73EFE03041B0C1F
:102490000020E2E7534B1B68DB060BD56368580846
:1024A000574B9C4660446168FDF72EFE03041B0CED
:1024B0000020D2E763685808524B9C46604461682C
:1024C000FDF722FE03041B0C0020C6E7FEF7CEFD3D
:1024D000400063685B08C0186168FDF715FE0304DF
:1024E0001B0C0020B9E76368580880235B029C46F8
:1024F00060446168FDF708FE03041B0C0020ACE794
:1025000001200023A9E7FFF7A1F963685B08C01861
:102510006168FDF7F9FD03041B0C002037491A0020
:10252000103A8A4200D975E02268D36000232366FE
:102530006366D0BDFFF79AF963685B08C0186168ED
:10254000FDF7E2FD03041B0C0020E7E7254B1B68A9
:10255000DB060BD563685808264B9C4660446168CF
:10256000FDF7D2FD03041B0C0020D7E76368580871
:102570001F4B9C4660446168FDF7C6FD03041B0CBD
:102580000020CBE7FEF772FD63685B08C018616846
:10259000FDF7BAFD03041B0C0020BFE76368580871
:1025A00080231B029C4660446168FDF7ADFD030477
:1025B0001B0C0020B2E701200023AFE70120B5E7A4
:1025C0000020B3E70120B1E7F369FFEFFFCFFFFF82
:1025D00000480040FFF4FFFF003801400044004085
:1025E000104400080010024000FDFFFFFFFC0F0038
:1025F0000024F40000093D0034440008EFFF00000F
:1026000000127A000048E80101208FE701208DE7E1
:1026100001208BE7012089E7436ADB0706D50268C2
:1026200053682C490B40816A0B435360436A9B07F4
:1026300006D50268536828490B40C16A0B435360B2
:10264000436A5B0706D50268536824490B40016B57
:102650000B435360436A1B0706D502685368204941
:102660000B40416B0B435360436ADB0606D502689F
:1026700093681C490B40816B0B439360436A9B0634
:1026800006D50268936818490B40C16B0B439360F1
:10269000436A5B060BD50268536814490B40016C12
:1026A0000B43536080235B03026C9A420AD0436A57
:1026B0001B0606D5026853680D490B40816C0B431D
:1026C00053607047026853680A490B40416C0B43E2
:1026D0005360ECE7FFFFFDFFFFFFFEFFFFFFFBFF87
:1026E000FF7FFFFFFFEFFFFFFFDFFFFFFFFFEFFFBA
:1026F000FFFFF7FFFFFF9FFFF0B5C64600B50600DE
:102700000C0017009846069D3368DB6923401B1BAD
:102710005A425341BB421CD16B1CF5D0FEF736FB2D
:102720004346C01AA84201D8002DEDD13268136883
:102730000A490B40136032689368A331FF318B4321
:10274000936020237367B36750330022F254032051
:1027500000E0002004BC9046F0BDC0465FFEFFFFD5
:10276000F0B585B004000E0017001D00436F202B4C
:102770005FD1002960D0002A60D080235B0182688D
:102780009A4218D07023E35C012B59D070230122A8
:10279000E2540023E36721336367FEF7F7FA0390FF
:1027A0005023E7520233E75280235B01A2689A422A
:1027B00008D0002716E00369002BE3D1CB07E1D551
:1027C000012037E02369002B21D000270AE03B8855
:1027D0002268DB05DB0D936202375222A35A013BCC
:1027E0009BB2A3525223E35A9BB2002B12D0009506
:1027F000039B002280212000FFF77EFF002821D1CB
:10280000002EE4D0327823689A620136E5E737007B
:102810000026E7E70095039B002240212000FFF7F8
:102820006BFF002810D12023636750330022E2544D
:1028300000E0022005B0F0BD0120FBE70120F9E730
:102840000220F7E70320F5E70320F3E730B583B074
:1028500004000023C367FEF799FA050023681B688C
:102860001B070CD423681B685B0715D42023636700
:10287000A36750330022E254002003B030BD802112
:102880000C4B00930300002289032000FFF734FF64
:102890000028E7D00320F0E78021064B00932B00AF
:1028A0000022C9032000FFF727FF0028DED0032005
:1028B000E3E7C046FFFFFF0110B5041E2ED0436FB3
:1028C000002B21D0242363672268136801218B43E6
:1028D00013602000FFF7ECFC012814D0636A002B82
:1028E00018D1226853680E490B40536022689368E0
:1028F0002A218B4393602268136829390B431360A4
:102900002000FFF7A3FF10BD70330022C25400F077
:1029100035FFD7E72000FFF77FFEE2E70120F2E76F
:10292000FFB7FFFF70470000F0B589B01422002107
:1029300003A801F099F8264BD96A04221143D96201
:10294000D96A0A400092009ADA6A80273A43DA622A
:10295000DA6A3A400192019ADA6A01252A43DA6278
:10296000DB6A2B400293029B00222021A020C0059D
:10297000FEF764FB174E002280213000FEF75EFB5D
:1029800080239B010393144B04930024059403A913
:102990003000FEF78DFA20230393049505940694E6
:1029A00003A9A020C005FEF783FA039704950594B8
:1029B000069403A93000FEF77BFA002200210720CD
:1029C000FEF7F8F90720FEF725FA09B0F0BDC0467A
:1029D00000100240000800500000211010B5094806
:1029E000094B0360E1235B02436000238360C36003
:1029F00003610C2242618361C36103624362FFF79A
:102A00005BFF10BDB41300200044004010B509481E
:102A1000094B0360E1235B02436000238360C360D2
:102A200003610C2242618361C36103624362FFF769
:102A300043FF10BDDC1200200038014030B587B0E4
:102A40001022002102A801F00FF808220021684698
:102A500001F00AF80F4C8023DB0523600E4B636006
:102A60000025A560FA23DB00E36025618023636114
:102A70002000FFF775F880235B01029302A9200074
:102A8000FFF7ACF80095019569462000FFF7AEF915
:102A900007B030BD781300209F0F000030B587B01D
:102AA0001022002102A800F0DFFF08220021684662
:102AB00000F0DAFF0E4C0F4B23600F4B63600025D4
:102AC000A560FA239B00E360256165612000FFF7A4
:102AD00047F880235B01029302A92000FFF77EF8EC
:102AE0000095019569462000FFF780F907B030BDD9
:102AF00034140020000801409F0F000010B580230F
:102B00009B01984203D00A20FEF746F910BDA02091
:102B10002021C005FEF798FAF5E7000010B5040083
:102B20002E4B02689A4204D022682D4B9A421BD049
:102B300010BD2C4B1B78642B0AD02A4B1B786E2BB4
:102B4000F2D1294B03221A70284B023A1A70EBE794
:102B5000254B00221A70254B01321A70A02020212B
:102B6000C005FEF76BFAE8E7204B5B78002B12D12B
:102B70001C4B1B78402B1BD11C4C6278D2B21C49D9
:102B80008B5463780133DBB263701A48FFF702F8A5
:102B90000023A3700CE0134B197823290ED0134A9D
:102BA0005378DBB21248C15453780133DBB253700F
:102BB00001220C491048FFF7DBF9B9E70B4C6378A9
:102BC000DBB20B4AD15463780133DBB2637009483E
:102BD000FEF7F2FF0123A370EAE7C0460038014088
:102BE00000440040D8120020000000200402002011
:102BF0002006002034140020B413002030B59DB00E
:102C0000382200210EA800F02FFF1422002109A86D
:102C100000F02AFF24220021684600F025FF154914
:102C20000B68154A1A4080231B0113430B600223D3
:102C30000E930922119207321292189300241994CC
:102C40001A9480231B041B930EA8FEF767FA0F2328
:102C5000099303250A950B940C940D94002109A85F
:102C6000FEF71AFD0095039404946846FEF70EFEE5
:102C70001DB030BD00700040FFE7FFFF002070472F
:102C8000F0B5C64600B584B005000F001400092851
:102C900027D00C281BD00120404204B004BC904631
:102CA000F0BDB30098461A48DB5918400009FDF7FB
:102CB000C7FE1849FDF7AEFBFDF7D2FA01AB42465D
:102CC000D0500136022EECDD002200200DE000265F
:102CD000F8E79A0001A9D05950500133022BF8DDD2
:102CE000F2E70023FAE701323000022AD5DC930034
:102CF00001A95B58461C23541F0A811CA7551F0CB1
:102D0000C61C67540C2DEED11B0EA355061DEAE719
:102D1000F0FF7F0000C82F3F30B505000023AB2037
:102D200004E0EA5C4240034CA05C01339942F8DCC9
:102D300030BDC046D8110020F0B5C1B0EA4B5A787A
:102D4000D2B29878C0B200280BD0DB78DBB2110089
:102D50003039CCB2092C00D972E3A100E34C6158A0
:102D60008F46FF23F3E7302B11D0312B00D13DE10B
:102D7000DF4CE049200000F07FFE2000FDF7CAFF95
:102D800082B2DD4B2100DD48FFF7EAFC66E3D84C58
:102D9000DB4923000A0023CA23C323CA23C320001C
:102DA000FDF7B8FFD44E82B2D44D33002100280085
:102DB000FFF7D6FCD34923000A0083CA83C383CA22
:102DC00083C32000FDF7A6FF82B233002100280054
:102DD000FFF7C6FCCC4923000A0083CA83C383CA19
:102DE00083C31188198092789A702000FDF792FFB2
:102DF00082B2330021002800FFF7B2FCC349230050
:102E00000A0083CA83C383CA83C312681A6020007E
:102E1000FDF780FF82B2330021002800FFF7A0FCFD
:102E2000BB4923000A0083CA83C383CA83C31188B2
:102E3000198092789A702000FDF76CFF82B23300FF
:102E400021002800FFF78CFCB24923000A0083CA46
:102E500083C383CA83C312681A602000FDF75AFF38
:102E600082B2330021002800FFF77AFCAA49230030
:102E70000A0083CA83C383CA83C3118819809278E6
:102E80009A702000FDF746FF82B23300210028002F
:102E9000FFF766FCA14923000A0083CA83C383CAE3
:102EA00083C312681A602000FDF734FF82B233003A
:102EB00021002800FFF754FC994923000A0083CA27
:102EC00083C383CA83C383CA83C312681A60200082
:102ED000FDF720FF82B2330021002800FFF740FCFD
:102EE000904923000A0083CA83C383CA83C383CA69
:102EF00083C31168196092889A802000FDF70AFF49
:102F000082B2330021002800FFF72AFC8649230003
:102F10000A0083CA83C383CA83C303CA03C3128854
:102F20001A802000FDF7F6FE82B23300210028004F
:102F3000FFF716FC7D4923000A0083CA83C383CAB6
:102F400083C383CA83C312781A702000FDF7E2FEA0
:102F500082B2330021002800FFF702FC74492300ED
:102F60000A0083CA83C383CA83C303CA03C3118805
:102F7000198092789A702000FDF7CCFE82B233005F
:102F800021002800FFF7ECFB6A4923000A0083CAEE
:102F900083C383CA83C303CA03C311881980927889
:102FA0009A702000FDF7B6FE82B23300210028009F
:102FB000FFF7D6FB604923000A0083CA83C383CA94
:102FC00083C383CA83C31168196092889A802000E2
:102FD000FDF7A0FE82B2330021002800FFF7C0FBFE
:102FE0000123564AD370564A537037E2404C554934
:102FF00023000A0023CA23C303CA03C32000FDF72A
:1030000089FE82B23C4B21003C48FFF7A9FB4B4BA9
:103010000022DA701B79012B08D0002280214A4857
:10302000FEF70CF8464B00225A7017E2013280215D
:103030004548FEF703F8424B01225A700EE2312B4D
:1030400010D0302B27D02A4C2A49200000F014FD44
:103050002000FDF75FFE82B2274B21002748FFF7D3
:103060007FFBFBE1224C394B220023CB23C219000A
:103070001B6813608B8893808B7993712000FDF718
:1030800049FE82B21C4B21001C48FFF769FB2C4B08
:1030900001229A70E2E1164C2D4923000A0023CA4E
:1030A00023C303CA03C32000FDF734FE82B2124BD0
:1030B00021001248FFF754FB214B00229A70CDE10A
:1030C000312B47D0302B5ED0094C0A49200000F04C
:1030D000D3FC2000FDF71EFE82B2074B21000748FB
:1030E000FFF73EFBBAE1C046200600205844000826
:1030F00014020020E446000888130000B4130020E6
:10310000E4440008FC440008144500083045000869
:103110004C4500086845000884450008A0450008A3
:10312000BC450008E4450008104600083446000885
:103130005C46000880460008A446000804020020FF
:1031400000000020D046000800080050104700088A
:1031500024470008C24CC34B220023CB23C21900D2
:103160001B6813608B8893808B7993712000FDF727
:10317000D1FD82B2BC4B2100BC48FFF7F1FABC4B39
:103180000122DA706AE1B64CBA4923000A0023CA68
:1031900023C303CA03C32000FDF7BCFD82B2B24BB8
:1031A0002100B248FFF7DCFAB14B0022DA7055E19A
:1031B000312B10D0302B27D0A94CAF49200000F084
:1031C0005BFC2000FDF7A6FD82B2A74B2100A748BB
:1031D000FFF7C6FA42E1A24CA84B220023CB23C240
:1031E00019001B6813608B8893808B799371200082
:1031F000FDF790FD82B29C4B21009C48FFF7B0FA8E
:103200009B4B01221A7129E1954C9D4923000A002C
:1032100023CA23C303CA03C32000FDF77BFD82B288
:10322000914B21009148FFF79BFA914B00221A71B4
:1032300014E1302B13D0312B28D0894C8E4920003B
:1032400000F01AFC2000FDF765FD82B2864B2100DC
:103250008648FFF785FA864B01225A71FEE0804CC2
:10326000884923000A0023CA23C323CA23C303CAED
:1032700003C32000FDF74EFD82B27B4B21007B484B
:10328000FFF76EFA7A4B09225A71E7E0744C7E49D7
:1032900023000A0023CA23C323CA23C303CA03C3C8
:1032A00012881A802000FDF735FD82B26E4B210096
:1032B0006E48FFF755FA6E4B0C225A71CEE00300B0
:1032C000303BDBB2092B23D8002305E0DA1C6F4921
:1032D0008A5C6946CA5401330200303A9A42F5DCEE
:1032E000002369468B54684600F08DFB0200684B52
:1032F00098605B4C6749200000F0BEFB2000FDF7A2
:1033000009FD82B2584B21005848FFF729FAA5E081
:10331000534C03006049200000F0AEFB2000FDF795
:10332000F9FC82B2504B21005048FFF719FA95E0A2
:10333000312B10D0302B27D0494C4F49200000F0C2
:103340009BFB2000FDF7E6FC82B2474B210047487B
:10335000FFF706FA82E04E4B01221A71404C4F49AA
:1033600023000A0023CA23C323CA23C31168196098
:1033700012791A712000FDF7CDFC82B23A4B210080
:103380003A48FFF7EDF969E0414B00221A71344CDD
:10339000434923000A0023CA23C323CA23C323CAE1
:1033A00023C32000FDF7B6FC82B22F4B21002F482B
:1033B000FFF7D6F952E0312B10D0302B27D0284C14
:1033C0002D49200000F058FB2000FDF7A3FC82B23D
:1033D000254B21002548FFF7C3F93FE02C4B012284
:1033E0001A731F4C2F4923000A0023CA23C323CA80
:1033F00023C31188198092789A702000FDF78AFC07
:1034000082B2194B21001948FFF7AAF926E0204B98
:1034100000221A73124C244923000A0023CA23C332
:1034200023CA23C303CA03C312881A802000FDF7EE
:1034300071FC82B20C4B21000C48FFF791F90DE0B2
:10344000074C1A49200000F017FB2000FDF762FC32
:1034500082B2054B21000548FFF782F941B0F0BD6B
:10346000140200203847000888130000B41300201D
:10347000000000204C470008E446000860470008B0
:103480007447000888470008A84700082006002065
:1034900004020020CC470008EC4700081848000848
:1034A0003848000888460008AC4600085C48000818
:1034B00070B53B4B9B78002B71D0394B9B78012B1F
:1034C00010D0374B9B78022B26D0354B9B78002BA6
:1034D00003D0334B5B78002B52D1314B00229A70D2
:1034E000002354E02E4B5B78002BEAD02D4C2E4B62
:1034F000220023CB23C219001B6813608B889380A2
:103500008B7993712000FDF705FC82B2274B2100D7
:103510002748FFF725F9D4E7214B5B78002BD4D05F
:10352000204C244923000A0023CA23C303CA03C32F
:103530001188198092789A702000FDF7EBFB82B217
:103540001A4B21001A48FFF70BF9BEE71A4AD15C63
:10355000144AD1540133DBB2114A5278D2B29A42A2
:10356000F4D80F4A5378DBB20E490A20C854527877
:1035700001320E4B0E48FFF7F3F8FFF7DDFBACE727
:103580000023E9E70C4A0021D1540133DBB2044A9D
:103590005278D2B29A42F5D8014B00225A7070BDCF
:1035A0000402002014020020804800088813000054
:1035B000B41300207C4800082006002070B5FDF7F9
:1035C000C9FBFFF71BFBFFF7AFF9FFF707FAFFF7A0
:1035D0001DFAFFF733FAFFF761FA424C0122424924
:1035E0002000FEF7C5FC41490A2208312000FEF701
:1035F00077FC3F48FEF7CEFA31E03C4B9B78012B3D
:103600000DD03A4BDB78012B0FD0384B1B79012BB7
:103610002FD10220FFF732FB364B986029E00020C3
:10362000FFF72CFB334B1860EBE70120FFF726FB7D
:10363000304B5860E9E7C1B22F4D2800FFF76CFB13
:103640002E4B587328550134A2B22D4B2900254822
:10365000FFF786F81EE0294B1B78012B21D0FFF7DE
:1036600027FF264B1B7B012BC7D0244B1B79012B3B
:10367000C3D0224BDB78002BEDD1204B1B79012BE3
:10368000E9D11A4B58791F4B1B4A1A49FFF7F8FA30
:10369000041ED0DC194B98680028DCDDFDF77CFBAC
:1036A000D9E7164B1B7B012BD9D1164B124A114976
:1036B0000920FFF7E5FA041E03DC104B00221A7004
:1036C000CDE7C1B20C4D2800FFF726FB0B4B58731A
:1036D00028550134A2B20A4B29000B48FFF740F8E5
:1036E000EBE7C046B4130020D812002000000020F1
:1036F00078130020140600205C1300200402002030
:10370000881300006C130020DC120020054B5A6B5C
:1037100001210A435A63996B802252050A439A6336
:103720007047C0460010024010B503688022D205E1
:10373000934203D00F4A93420ED010BD0E4A936BB2
:1037400001210B439363002200210F20FDF732FB80
:103750000F20FDF75FFBF0E7074A536B04210B4393
:103760005363002200211420FDF724FB1420FDF7F1
:1037700051FBE2E7000801400010024010B588B09C
:1037800004001422002103A800F06EF92368284ADF
:10379000934204D0274A934226D008B010BD264B4E
:1037A000596B8022D2010A435A63D96A012211431C
:1037B000D962DB6A1A400192019BC023DB000393AC
:1037C000022304930133069301330793A02003A936
:1037D000C005FDF76DFB002200211B20FDF7EAFA72
:1037E0001B20FDF717FBD8E7134B996B8022920241
:1037F0000A439A63D96A01221143D962DB6A1A40EB
:103800000292029B0C2303930A3B04930133069319
:1038100001330793A02003A9C005FDF749FB00224F
:1038200000211C20FDF7C6FA1C20FDF7F3FAB4E7CF
:103830000038014000440040001002407047FEE79D
:103840007047704710B5FDF799FA134B1B78DBB240
:10385000022B0BD9114A138801339BB21380FA2231
:103860005200934202D90D4B00221A800C4B1B7858
:10387000012B00D010BD094A538801339BB25380FD
:10388000FA2252009342F5D980210648FDF7DCFB6D
:10389000024B00225A80EDE700000020FC050020CA
:1038A000010000200008005010B580208001FDF7C5
:1038B000CFFB10BD10B50748FEF707FA064B1B7883
:1038C000DBB2042B04D8044A13780133DBB2137043
:1038D00010BDC046781300200000002010B5054C34
:1038E0002000FEF7F2F9044B02221A702000FEF7C6
:1038F00063F910BD341400200602002010B5024800
:10390000FEF72AFC10BDC046DC12002010B50248AC
:10391000FEF722FC10BDC046B413002010B5030012
:103920000B4A1268002A08D0094A1068C3186A4670
:10393000934206D8064A136010BD054A0549116036
:10394000F2E700F067F80C23036001204042F3E740
:103950000006002078140020104B196880225200C5
:103960000A431A60DA680E490A40DA601A680D499B
:103970000A401A609A6801218A439A601A680A49C3
:103980000A401A60DA6809490A40DA6000221A61BE
:10399000074B802212059A607047C0460010024013
:1039A0000C40FF88F6FFF6FEFFFFFBFFFFFF02FF64
:1039B00000ED00E00D488546002103E00C4B5B580C
:1039C000435004310B480C4B42189A42F6D30B4A31
:1039D00002E0002313600432094B9A42F9D3FFF747
:1039E000BBFF00F01DF8FFF7E9FDFEE70020002017
:1039F000E449000800000020E8010020E801002060
:103A000074140020FEE710B50A22002100F0D6F859
:103A100010BD0000014B18687047C0461800002018
:103A200070B500260C4D0D4C641BA410A64209D1A4
:103A3000002600F0E1FC0A4D0A4C641BA410A642CB
:103A400005D170BDB300EB5898470136EEE7B300DF
:103A5000EB5898470136F2E7DC490008DC490008DA
:103A6000DC490008E049000803001218934200D125
:103A7000704719700133F9E70EB400B50B499CB0DB
:103A80001DAB02900690079104910948094904CBA7
:103A90000591006802A9019300F01CF90023029A25
:103AA00013701CB008BC03B01847C046FFFFFF7F6F
:103AB000180000200802FFFFF0B51F000E0087B0BD
:103AC0000590019102920C98347800F08BF808224E
:103AD00000194378751C134036D12D2C36D1B51CF6
:103AE00074780126002F62D0102F09D1302C07D115
:103AF00020222B789343582B54D110276C78023511
:103B00002D4B3900F31818000393FCF783FB049145
:103B100001210023494202008C461800210030395F
:103B200009291AD80C00A74223DD591C09D0634685
:103B3000824206D302D10499A14202DB01237843D9
:103B400020182C780135E9E72E00BCE72B2C01D09A
:103B50001E00C7E7B51C7478FAE72100413919291E
:103B600001D8373CDFE721006139192901D8573CDA
:103B7000D9E75A1C08D1059A23331360029B039896
:103B8000002B09D107B0F0BD002E00D04042029AB0
:103B9000002AF7D0002B01D06B1E0193029B019AE3
:103BA0001A60EFE73024002FAAD10827A8E7302CAD
:103BB0009ED00A27A4E7C046FFFFFF7F37B513005A
:103BC000064A05001068046A002C00D1044C0A0063
:103BD00000942900FFF770FF3EBDC046180000208A
:103BE0007C000020EC300068704782B0002900D1D2
:103BF00001A9101E06D0002B06D013780B60107898
:103C0000431E984102B0704702204042FAE700008C
:103C1000F0B58E6885B007000C00039201939E42B8
:103C20003CD890238A89DB001A4234D003250969E5
:103C300023685B1A0293636902985D43EB0F5D1979
:103C4000019B6D1001331B18AB4200D91D005305B9
:103C500032D52900380000F02FFB061E09D10C23B5
:103C60003B6040230120A28940421343A38105B059
:103C7000F0BD029A216900F0B8FAA389144A1A40EB
:103C800080231343A381029B2661F6182660656199
:103C9000019EED1AA560019B9E4200D9019E320053
:103CA0000399206800F0AAFAA36800209B1BA36078
:103CB00023689E192660DAE72A00380000F05AFBD4
:103CC000061EE0D12169380000F0ACFAC7E7C04613
:103CD0007FFBFFFFF0B5A1B003901D008B890F00A3
:103CE00016001B0611D50B69002B0ED1402100F0E8
:103CF000E3FA38603861002805D10C23039A0138B3
:103D0000136021B0F0BD40237B61002308AC6361E8
:103D1000203363761033A376079535002B78002B7C
:103D200001D0252B46D1AB1B05930CD032003900B6
:103D30000398FFF76DFF431C00D1AEE06269059B5D
:103D40009446634463612B78002B00D1A5E00122E7
:103D500000235242626004A9543252186E1C236040
:103D6000E360A3601370A36531780522534800F027
:103D700031FA751C00281FD12268D30604D55323BD
:103D800004A95B1820211970130704D5532304A933
:103D90005B182B21197033782A2B16D0350000219F
:103DA0000A20E3682A786E1C303A092A4ED9002985
:103DB00018D010E00135B1E7404B2268C01A01234A
:103DC0008340134323602E00CEE7079B191D1B6819
:103DD0000791002B01DB0B9304E05B42E3600223BD
:103DE000134323602B782E2B0AD16B782A2B35D1E5
:103DF000079B02351A1D1B680792002B2BDB0993CA
:103E00002F4E29780322300000F0E4F9002806D074
:103E10004023801B834022680135134323602978A7
:103E2000062228486E1C217600F0D4F900283CD0E8
:103E3000254B002B25D10722079B073393430833DB
:103E400007936369049A9B18636166E74343012102
:103E50009B183500A6E701235B42D0E700230A2028
:103E60001A000135636029786E1C3039092903D99D
:103E7000002BC5D00992C3E74243012352183500F5
:103E8000F1E707AB00933A00104B2100039800E0E4
:103E900000BF0490049B0133D3D1BB890D985B060E
:103EA00000D42EE7012040422BE707AB00933A00F5
:103EB000064B2100039800F079F8EAE79E480008D5
:103EC000A4480008A848000800000000113C0008B1
:103ED000F7B5150001938A680B6900900C009342B6
:103EE00000DA130022002B6043321278002A01D03E
:103EF00001332B6023689B0602D52B6802332B60AD
:103F0000062723681F4027D0230043331B785A1EFF
:103F100093412268920630D42200019943320098DE
:103F2000089EB047431C25D0062320682A68E16814
:103F300003400025042B03D18D1AEB43DB171D40F2
:103F4000A3682269934201DD9B1AED180027BD4248
:103F500020D1002010E00137E3682A689B1ABB4299
:103F6000D2DD22000123193201990098089EB04742
:103F7000431CF0D101204042FEBD3020E118433106
:103F8000087021005A1C45310978A21843320233C7
:103F90001170C1E7220001231A3201990098089E8E
:103FA000B047431CE6D00137D1E70000F0B589B037
:103FB00004920A0043320593039002920A7E0C0099
:103FC0000E9B6E2A00D186E01FD8632A33D008D812
:103FD000002A00D18CE0582A4DD0250042352A70A5
:103FE00030E0642A01D0692AF7D1196825680A1DD2
:103FF000280629D508681A60002803DA2D23029ABA
:10400000404213706B4E0A274FE0732A74D008D8D1
:104010006F2A1FD0702AE0D1202209680A4322604B
:1040200003E0752A16D0782AD7D1220078214532AC
:104030001170614E22E025001A684235111D196089
:1040400013682B70012365E008681A606906D3D5F0
:1040500000B2D1E719682568081D186008682E06A7
:1040600005D5544E08276F2A1BD00A2719E06D0684
:10407000F7D580B2F5E745314E4E0A7018682268D0
:10408000011D00681960150621D5D30702D520232C
:104090001A4322601027002803D1202322689A4364
:1040A00022602300002243331A706368A360002B50
:1040B00058DB0422216891432160002854D1029DDD
:1040C000002B5AD02500337842352B7055E0550629
:1040D000DBD580B2D9E71A680D68101D49691860F0
:1040E00013682E0601D5196002E06D06FBD5198014
:1040F0000023029D23614FE01A68111D19601568A5
:1041000000216268280000F065F8002801D0401BFB
:104110006060636823610023029A13703CE02369A6
:104120002A0004990398059DA847431C3ED02368A4
:104130009B0715D4079BE068984239DA180037E0EE
:1041400022000123193204990398059EB047431CAD
:104150002CD00135E368079A9B1AAB42F0DCE9E703
:104160000025F7E70028ADD0029D3900FCF752F892
:10417000735C013D2B700028F7D1082F09D123680B
:10418000DB0706D563682269934202DC3023013DD8
:104190002B70029B5B1B2361059B07AA00932100E8
:1041A000049B0398FFF794FE431CB8D101204042C2
:1041B00009B0F0BDAF480008C04800080B1E04D08D
:1041C000FF2A04D98A2303608B3B180070470A70CA
:1041D0000123FAE7C9B28218904201D1002070474A
:1041E00003788B42FBD00130F6E7002310B59A42EA
:1041F00000D110BDCC5CC4540133F8E710B588423F
:1042000002D98B18984203D3002307E08B5C8354B8
:10421000013AFBD210BDCC5CC45401339A42FAD1AE
:10422000F8E7000070B50500002910D00C1F2368C6
:10423000002B00DAE418280000F0D4F81D4A1368B7
:10424000002B05D163601460280000F0CCF870BD2D
:10425000A34209D9216860188342F3D118685B68CA
:1042600041182160EEE713005A68002A01D0A242EB
:10427000F9D919685818A0420BD1206809185818A4
:1042800019608242E0D110685268411819605A6082
:10429000DAE7A04202D90C232B60D5E72168601829
:1042A000824203D1106852684118216062605C60EC
:1042B000CAE7C04608060020032370B5CD1C9D4305
:1042C000083506000C2D1ED20C25A9421DD8300041
:1042D00000F088F8254A14682100002919D1244CDF
:1042E0002368002B03D1300000F06AF82060290019
:1042F000300000F065F8431C2BD10C2330003360F4
:1043000000F071F803E0002DDFDA0C2333600020A9
:1043100070BD0B685B1B19D40B2B03D90B60CC1839
:10432000256003E04B688C420DD11360300000F033
:104330005AF8200007220B30231D9043C31AE7D000
:104340005A42E250E4E763600C00EFE70C00496872
:10435000C3E70323C41C9C43A042E1D0211A3000D0
:1043600000F02EF8431CDBD1C7E7C046080600204A
:104370000C060020F8B507000D001600002905D135
:104380001100FFF799FF04002000F8BD002A03D1B7
:10439000FFF748FF3400F7E700F026F82C00B042A2
:1043A000F2D231003800FFF787FF041EECD029005D
:1043B0003200FFF71AFF29003800FFF733FFE3E769
:1043C000002370B5064C050008002360FFF7A6FA2D
:1043D000431C03D12368002B00D02B6070BDC04666
:1043E00070140020704770470B1F1B68181F002BAC
:1043F00001DA0B58C0187047F8B5C046F8BC08BCC5
:104400009E467047F8B5C046F8BC08BC9E4670474B
:1044100006250008342500084C250008B6250008AC
:1044200084250008B6250008B6250008B625000832
:104430009C250008422400087A24000894240008DF
:1044400000250008CC2400080025000800250008ED
:1044500000250008E6240008662D00083E3000080C
:10446000C0300008B0310008323200084034000883
:1044700040340008BE32000830330008B63300086C
:10448000030406080C101820300000000000000093
:1044900000000000010203040607080900000000F4
:1044A000010203040C050008B6040008B604000865
:1044B000E4050008B2040008B2040008DA050008A8
:1044C000E4050008B2040008DA050008B204000898
:1044D000E4050008E8050008E8050008E80500080C
:1044E000F00500084030313023203A2053657474C1
:1044F000696E67202D204D6F64650A0040303131B0
:1045000023203A2052756E6E696E67202D204D6F04
:1045100064650A004031313123203A205475726EAF
:10452000204F4E20456E636F64657220310A000093
:104530004031313023203A205475726E204F464668
:1045400020456E636F64657220310A00403231315C
:1045500023203A205475726E204F4E20456E636FB3
:1045600064657220320A00004032313023203A2044
:104570005475726E204F464620456E636F646572B7
:1045800020320A004033313123203A205475726EB4
:10459000204F4E20456E636F64657220330A000021
:1045A0004033313023203A205475726E204F4646F6
:1045B00020456E636F64657220330A0040343130E9
:1045C00023203A204D43552053656E647320524199
:1045D000575F4441544120746F205445524D494E19
:1045E000414C0A004034313123203A204D435520BC
:1045F00053656E647320414E474C455F44415441BE
:1046000020746F205445524D494E414C0A00000021
:1046100040373331303023203A205365742066729E
:10462000657175656E6379206F66203130306D730A
:104630000A0000004038313023203A205570646170
:10464000746520456E636F6465727320746F2054C7
:1046500045524D494E414C0A00000000403831316E
:1046600023203A2053746F70205570646174696E12
:104670006720746F205445524D494E414C0A00004A
:104680004039313023203A205570646174652045EB
:104690006E636F6465727320746F2044537061633E
:1046A000650A00004039313123203A2053746F707D
:1046B000205570646174696E6720456E636F646530
:1046C000727320746F204453706163650A000000A8
:1046D000456E7465722052756E6E696E67204D6FFF
:1046E00064650A00496E76616C696420436F6D6D84
:1046F000616E6420434D445F475250282563292C46
:1047000020434D445F535542282563290A00000089
:104710005455524E2D4F4E20456E636F6465722D79
:10472000310A00005455524E2D4F464620456E63C7
:104730006F6465722D310A005455524E2D4F4E2034
:10474000456E636F6465722D320A00005455524EF7
:104750002D4F464620456E636F6465722D320A0008
:104760005455524E2D4F4E20456E636F6465722D29
:10477000330A00005455524E2D4F464620456E6375
:104780006F6465722D330A004D43552073656E6466
:1047900073205241572D4461746120746F20546519
:1047A000726D696E616C0A004D43552073656E64CD
:1047B0007320414E474C452D4461746120746F2035
:1047C0005465726D696E616C0A0000004672657115
:1047D00075656E63792069732073657420746F202A
:1047E000256C6420286D73290A000000496E7661EB
:1047F0006C696420436F6D6D616E6420434D445F4E
:10480000475250282563292C20646174615F6C65D0
:104810006E282563290A000055706461746520457F
:104820006E636F6465727320746F205465726D6976
:104830006E616C0A0000000053746F702055706444
:104840006174696E6720456E636F6465727320746E
:104850006F205465726D696E616C0A00496E7661F5
:104860006C696420436F6D6D616E6420434D445FDD
:10487000475250282563290A000000004241442085
:10488000436F6D6D616E6420524543454956454402
:104890003A2000004300504F534958002E00232D6A
:1048A000302B2000686C4C00656667454647003039
:1048B0003132333435363738394142434445460086
:1048C0003031323334353637383961626364656686
:1048D00000002020202020202020202828282828F0
:1048E00020202020202020202020202020202020C8
:1048F0002020881010101010101010101010101020
:10490000101004040404040404040404101010101F
:1049100010101041414141414101010101010101DA
:10492000010101010101010101010101011010104A
:1049300010101042424242424202020202020202AD
:10494000020202020202020202020202021010101D
:104950001020000000000000000000000000000027
:104960000000000000000000000000000000000047
:104970000000000000000000000000000000000037
:104980000000000000000000000000000000000027
:104990000000000000000000000000000000000017
:1049A0000000000000000000000000000000000007
:1049B00000000000000000000000000000000000F7
:1049C00000000000000000000000000000000000E7
:0449D00000000000E3
:0849D400BCB8FF7F01000000E8
:0449DC00E9000008E6
:0449E000C10000080A
:1049E40001FF0101010C0000454D43552E45550DB5
:1049F4000A000000000020001C000020000000004D
:104A040000000000000000000000000000000000A2
:104A14000000000000000000000000000000000092
:104A24000000000000000000000000000000000082
:104A34000000000000000000000000000000000072
:104A44000000000000000000000000000000000062
:104A5400000000000000000000000000430000000F
:104A64000000000000000000000000000000000042
:104A740000000000000000000000000043000000EF
:104A84000000000000000000000000000000000022
:104A940000000000000000000000000043000000CF
:104AA4000000000000000000000000000000000002
:104AB40000000000000000000000000043000000AF
:104AC40000000000000000000000000000000000E2
:104AD400000000000000000000000000430000008F
:104AE40000000000000000000000000000000000C2
:104AF400000000000000000000000000430000006F
:104B040000000000000000000000000000000000A1
:104B1400000000000000000000000000430000004E
:104B24000000000000000000000000000000000081
:104B3400000000000000000000000000BD4100086B
:104B4400EB3B000800000000D14800089C48000826
:104B5400A3480008A3480008A3480008A348000885
:104B6400A3480008A3480008A3480008A348000875
:104B7400A3480008FFFFFFFFFFFFFFFFFFFFFFFF4A
:104B8400FFFF0000010041534349490000000000B9
:104B94000000000000000000000000000000000011
:104BA4000000000000004153434949000000000098
:104BB40000000000000000000000000000000000F1
:084BC4000000000000000000E9
:04000005080039B501
:00000001FF
