:020000040800F2
:100000000020002081270008152600081726000878
:1000100000000000000000000000000000000000E0
:100020000000000000000000000000001926000889
:1000300000000000000000001B2600081D2600082C
:10004000D1270008D1270008D1270008D1270008B0
:10005000D1270008D1270008D1270008D1270008A0
:10006000D1270008D1270008D1270008D127000890
:10007000D1270008D1270008000000008D260008C5
:1000800000000000D1270008000000000000000070
:10009000A926000800000000D1270008D127000889
:1000A000D1270008D1270008D1270008C926000859
:1000B000D9260008D1270008D1270008D127000839
:1000C00010B5064C2378002B07D1054B002B02D02E
:1000D000044800E000BF0123237010BD740000201D
:1000E0000000000048300008044B10B5002B03D07E
:1000F0000349044800E000BF10BDC04600000000F6
:100100007800002048300008002243088B4274D356
:1001100003098B425FD3030A8B4244D3030B8B4208
:1001200028D3030C8B420DD3FF22090212BA030C11
:100130008B4202D31212090265D0030B8B4219D3F2
:1001400000E0090AC30B8B4201D3CB03C01A524112
:10015000830B8B4201D38B03C01A5241430B8B425A
:1001600001D34B03C01A5241030B8B4201D30B0343
:10017000C01A5241C30A8B4201D3CB02C01A52416A
:10018000830A8B4201D38B02C01A5241430A8B422D
:1001900001D34B02C01A5241030A8B4201D30B0216
:1001A000C01A5241CDD2C3098B4201D3CB01C01A30
:1001B000524183098B4201D38B01C01A524143093A
:1001C0008B4201D34B01C01A524103098B4201D328
:1001D0000B01C01A5241C3088B4201D3CB00C01A95
:1001E000524183088B4201D38B00C01A524143080D
:1001F0008B4201D34B00C01A5241411A00D2014632
:10020000524110467047FFE701B5002000F006F8A4
:1002100002BDC0460029F7D076E770477047C04658
:10022000002B11D1002A0FD1002900D1002802D0C3
:100230000021C943081C07B4024802A140180290DB
:1002400003BDC046D9FFFFFF03B4684601B502985D
:1002500000F006F8019B9E4602B00CBC7047C046F9
:10026000F0B54F464646D646C0B5040082B00D00F4
:10027000914698468B422FD82CD04146484600F0F4
:10028000B1F829000600200000F0ACF8331A9C46B3
:10029000203B9A4600D576E04B46524693401F00DD
:1002A0004B46624693401E00AF4228D825D05346A5
:1002B000A41BBD41002B00DA7BE00022002300924A
:1002C00001930123524693400193012362469340D8
:1002D000009318E08242D0D90022002300920193BB
:1002E0000A9B002B01D01C605D600098019902B050
:1002F0001CBC90469946A246F0BDA342D7D9002225
:100300000023009201936346002BE9D0FB07984637
:10031000414672080A437B0866460EE0AB4201D1B3
:10032000A2420CD8A41A9D41012024196D4100213C
:10033000013E24184D41002E06D0AB42EED9013EBD
:1003400024196D41002EF8D10098019953460019E7
:100350006941002B23DB2B005246D3402A00644620
:10036000E2401C0053461500002B2DDB26005746AB
:10037000BE40330026006746BE403200801A9941D5
:1003800000900191ACE7624620239B1A4A46DA406E
:100390006146130042468A4017001F4380E76246C9
:1003A00020239B1A2A0066469A402300F3401343F9
:1003B000D4E76246202300219B1A0022009101927B
:1003C0000122DA40019280E72023624626009B1A30
:1003D000DE402F00B0466646B74046463B003343FA
:1003E000C8E7C04610B5002903D100F007F8203057
:1003F00002E0081C00F002F810BDC0461C210123D9
:100400001B04984201D3000C10391B0A984201D3F7
:10041000000A08391B09984201D30009043902A2D5
:10042000105C40187047C04604030202010101013C
:1004300000000000000000000023C25C0133002A1D
:10044000FBD1581E7047000010B50400094B186816
:10045000FA218900FFF758FE00F078F8002801D053
:10046000012010BD013000222100404200F034F88C
:100470000020F6E70C00002010B5084A1368402160
:100480000B4313600020FFF7DFFF041E02D001249E
:10049000200010BD02F026F8FAE7C0460020024016
:1004A000024A1368013313607047C046900400206D
:1004B000014B18687047C0469004002070B50400D6
:1004C000FFF7F6FF0500631C00D00134FFF7F0FFD3
:1004D000401BA042FAD370BD70B5002811DB840820
:1004E000134DC034A400625903231840C000FC33EC
:1004F0001E008640B24389010B4083401343635181
:1005000070BDC0B20F220240083A92080632920033
:10051000084BD3185D6803242040C000FF2214005C
:100520008440A54389010A4082402A435A60E7E794
:1005300000E100E000ED00E01F2318401E3B834077
:10054000014A13607047C04600E100E001380A4BE1
:1005500098420FD8094A50600948036A1B021B0AD7
:10056000C02109060B430362002393600733136025
:10057000002070470120FCE7FFFFFF0010E000E0D3
:1005800000ED00E010B52523C35C022B03D004234B
:10059000C363012010BD026813680E218B431360F2
:1005A00001680A6801239A430A601C22416C0A40D0
:1005B000016C1C0094404C6025228354233300229C
:1005C000C254836B002B02D098470020E2E7002042
:1005D000E0E70000F0B5C64600B5002338E0052688
:1005E00000E00026AE4035003D430234A400554EE5
:1005F000A551554C25684246D4432E0026404A68F2
:10060000D20302D5424615432E004F4D2E606D6831
:100610002E0026404A68920302D5424615432E001A
:10062000494D6E60AD682E0026404A68D20202D560
:10063000424615432E00444DAE60ED682C404A689A
:10064000920202D542462A4314003F4AD460013345
:100650000A681400DC4072D001249C40224090467D
:10066000F5D04D68022D01D0122D0ED1DD080835D0
:10067000AD002F5807261E40B6000F22B240974308
:100680000A69B24016003E432E504D686E1E012E80
:1006900003D9112D01D0122D12D185685F000326D8
:1006A000BE40B5432E00CD68BD40354385604568EA
:1006B000A5434A681609012434409C402C434460F9
:1006C00007685E0003242500B540ED432F404A68CB
:1006D0001440B4403C430460C46825408C68B44076
:1006E0002C43C4604A68D200B1D5184D6C6B01260A
:1006F00034436C639C08A51CAD00124EAF59032611
:100700001E40B5000F26AE40B743A026F605B04206
:1007100000D166E70E4EB0420BD00E4EB0420AD06A
:100720000D4EB04209D00D4EB04200D157E706261B
:1007300058E7012656E7022654E7032652E704BC91
:100740009046F0BD0000014000040140001002404E
:100750000004005000080050000C0050001C005025
:10076000002A01D1816270478161FCE743695940E9
:100770004161704710B5264BD9680C230B40082BFC
:1007800042D00C2B11D0042B09D0214B5A68520BAC
:1007900007231340013380200002984010BD1C4BFA
:1007A0001B68DB0632D51B48F8E78A0C0F23134081
:1007B000194AD05C890D032211400131144BDB68CA
:1007C000DB030DD4124B1B68DB0613D54201121A52
:1007D00093019B1ADB001B181802FFF795FCDDE75D
:1007E0004201121A93019B1ADB001B185802FFF7F3
:1007F0008BFCD3E74201121A93019B1ADB001B18F2
:100800009802FFF781FCC9E70448C7E70448C5E739
:100810000010024000093D00A830000800127A00D4
:100820000024F400F0B583B0041E00D197E2CA4B57
:10083000DA680C251540DA688026760216400368CF
:10084000DB0736D5082D2CD00C2D28D063688022EC
:10085000520293424DD0A022D202934250D0BE4BBE
:100860001A68BE490A401A601A68802149020A4083
:100870000192019A1A68BA490A401A606368002B0B
:100880004AD0FFF715FE0700B34B1B689B0310D43B
:10089000FFF70EFEC01B6428F6D9032060E2002E8D
:1008A000D4D0AD4B1B689B0303D56368002B00D1EC
:1008B00058E223689B0764D5E368042D3CD00C2DD7
:1008C00038D0002B00D1AEE0A3490A68092082434A
:1008D00013430B60FFF7ECFD06009F4B1B685B07A3
:1008E00000D597E0FFF7E4FD801B0228F5D903202F
:1008F00036E2994A116880235B020B431360BDE71F
:10090000954B19688022D2020A431A601968802226
:1009100052020A431A60B1E7FFF7CAFD07008E4B87
:100920001B689B03C5D5FFF7C3FDC01B6428F6D920
:10093000032015E2002EC4D1874A1268520702D55F
:10094000002B00D110E2844E726886490A4021696A
:1009500009020A437260326809218A4313433360F3
:10096000FFF708FFF26812090F2313407E4AD35C99
:10097000D8407E4B18600020FFF766FD002800D0AD
:10098000EEE12368DB062CD5002D5FD1724B1B688E
:100990009B0503D5E369002B00D1E7E16E4A53685C
:1009A00073490B40616A0B43536053681B021B0A77
:1009B000216A09060B435360636A590B0131802396
:1009C0001B028B40D16809090F220A4066498A5CE4
:1009D000D340664A13600020FFF736FD002800D0A0
:1009E000BEE123681B077DD56369002B67D05A4A97
:1009F000136D01210B431365FFF75AFD0600564B9B
:100A00001B6D9B076ED4FFF753FD801B0228F6D9A0
:100A10000320A5E150494B68524A13402269120253
:100A200013434B60ADE74C4A136801218B431360BD
:100A3000FFF73EFD0600484B1B685B07A1D5FFF79B
:100A400037FD801B0228F6D9032089E1E369002BDA
:100A500022D0414A116880235B000B431360FFF7EB
:100A600027FD06003C4B1B689B0506D4FFF720FDC5
:100A7000801B0228F6D9032072E1374A53683C49AB
:100A80000B40616A0B43536053681B021B0A216AC7
:100A900009060B435360A4E72F4A136835490B40FE
:100AA0001360FFF705FD06002B4B1B689B0598D5CF
:100AB000FFF7FEFC801B0228F6D9032050E1264AEE
:100AC000136D01218B431365FFF7F2FC0600224BE7
:100AD0001B6D9B0706D5FFF7EBFC801B0228F6D9A0
:100AE00003203DE123685B0700D48CE01A4B9B6B2D
:100AF000DB001BD4184A916B80235B050B43936387
:100B000001261D4B1B68DB0512D5A368802252000D
:100B1000934235D0002B4BD10F4B1A6D15490A402B
:100B20001A651A6D15490A401A652FE00026E8E794
:100B3000114A116880235B000B431360FFF7B8FC78
:100B400007000D4B1B68DB05DFD4FFF7B1FCC01BB2
:100B50006428F6D9032003E100100240FFFFFEFFE6
:100B6000FFFFFBFFFFE0FFFFB43000080C00002098
:100B7000FF1FFFFFFFFEFFFF00700040FFFBFFFFB6
:100B80007E4A116D80235B000B431365A368002B25
:100B900028D0FFF78DFC0700784B1B6D9B0530D4E8
:100BA000FFF786FCC01B764B9842F5D90320D7E0AF
:100BB000A022D200934209D0704B1A6D71490A40AD
:100BC0001A651A6D70490A401A65DFE76B4B196D9B
:100BD000013AFF3A0A431A65196D802252000A430E
:100BE0001A65D3E7FFF764FC0700644B1B6D9B0598
:100BF00007D5FFF75DFCC01B614B9842F5D9032078
:100C0000AEE0012E21D023689B063CD5A369002BC2
:100C100021D05A4B99680120014399605A6B0243D5
:100C20005A635A4A116A80239B010B431362FFF7F0
:100C30003FFC0600514B9B689B0724D4FFF738FC10
:100C4000801B0228F6D903208AE04C4A936B504956
:100C50000B409363D7E7494A936801218B43936024
:100C60004A4A136A4B490B401362FFF721FC060006
:100C7000424B9B689B0706D5FFF71AFC801B022896
:100C8000F6D903206CE0A36A002B00D170E00C2D94
:100C900049D0022B12D0394A13683F490B401360E8
:100CA000FFF706FC0400354B1B689B0139D5FFF7A5
:100CB000FFFB001B0228F6D9032051E02F4A1368DE
:100CC00035490B401360FFF7F3FB05002B4B1B6806
:100CD0009B0106D5FFF7ECFB401B0228F6D9032049
:100CE0003EE02649CB682D4A1340E26A206B02435E
:100CF000606B02431343CB600A6880235B04134399
:100D00000B60FFF7D5FB04001C4B1B689B0106D44E
:100D1000FFF7CEFB001B0228F6D9032020E00020BD
:100D20001EE000201CE0012B24D0144BDA68802345
:100D30005B021340E16A8B4201D0012010E0F023F6
:100D40009B031340216B8B4201D0012008E0C0239C
:100D50001B041A40636B9A420ED0012000E0012070
:100D600003B0F0BD0120FBE70120F9E70120F7E720
:100D70000020F5E70120F3E70020F1E70010024032
:100D800088130000FFFEFFFFFFFBFFFF0000014094
:100D9000FFFFFFEFFFDFFFFFFFFFFFFEFFFF02FF91
:100DA00070B504000D00002800D1BAE05F4B1A684E
:100DB000012313408B420BD25C490B680122934301
:100DC0002B430B600B681A40AA4201D00120A9E016
:100DD00023689B0706D5564AD368F0218B43A16848
:100DE0000B43D3602368DB0764D56368022B09D00B
:100DF000032B29D0012B2DD04D4A1268920506D421
:100E000001208FE04A4A1268920300D48BE04849DF
:100E1000CA68032082431343CB60FFF749FB0600F7
:100E20006368022B1CD0032B28D0012B34D0404BFD
:100E3000DB680C221A423DD0FFF73AFB801B3D4B8A
:100E40009842F4D903206DE0394A12689201DED449
:100E5000012067E0364A12685207D8D4012061E0C9
:100E6000334BDA680C231340082B23D0FFF720FB09
:100E7000801B304B9842F3D9032053E02C4BDA68A7
:100E80000C2313400C2B15D0FFF712FB801B294BB2
:100E90009842F3D9032045E0254BDA680C23134030
:100EA000042B07D0FFF704FB801B224B9842F3D999
:100EB000032037E01D4B1A6801231340AB420BD9C6
:100EC0001A490B68012293432B430B600B681A40AD
:100ED000AA4201D0012025E023685B0706D5144A09
:100EE000D36815490B40E1680B43D36023681B07A7
:100EF00007D50F49CB68114A13402269D20013432A
:100F0000CB60FFF737FC0A4BDA6812090F23134056
:100F10000B4AD35CD8400B4B18600020FFF794FAC3
:100F200000E0012070BD0120FCE7C0460020024027
:100F30000010024088130000FFF8FFFFFFC7FFFF0B
:100F4000B43000080C000020014B18687047C04600
:100F50000C00002010B5FFF7F7FF044BDA68120A07
:100F600007231340024AD35CD84010BD0010024052
:100F7000C430000810B5FFF7E7FF044BDA68D20A67
:100F800007231340024AD35CD84010BD0010024032
:100F9000C430000870B5040082231B0102681A42A5
:100FA0005AD0704B9B6BDB0000D593E06D4A916B80
:100FB00080235B050B43936301256B4B1B68DB05AB
:100FC00000D489E0674B1A68C0239B031A4061680C
:100FD0000B40934200D194E0C0239B020A001A40C8
:100FE0009A4200D195E05F4B1B6DC02292021340E4
:100FF0001FD01140994202D02268920608D4C02224
:101000009202A1680A409A4213D023681B0510D5AA
:10101000544B186D554A02401E6D8021090331431F
:101020001965196D524E314019651A65C30500D511
:1010300076E06368C022920219001140914200D10B
:101040007EE048490B6DC022920260680240134363
:101050000B65012D00D17DE02368DB0706D5414AF1
:10106000D36C03218B43E1680B43D36423689B0754
:1010700006D53C4AD36C0C218B4321690B43D364C6
:1010800023685B0706D5374AD36C3A490B40616940
:101090000B43D36423681B0706D5324AD36C364909
:1010A0000B40A1690B43D36423685B0606D52D4A28
:1010B000D36C32490B40216A0B43D36423681B066F
:1010C0004ED5284AD36C2E490B40E1690B43D364BB
:1010D000002070BD002570E7234A116880235B0063
:1010E0000B431360FFF7E4F906001F4B1B68DB0599
:1010F00000D567E7FFF7DCF9801B6428F5D90320EA
:10110000E7E7C0239B03A0680340934200D063E756
:1011100069E7144B1B689B0300D464E70120D8E700
:10112000FFF7C6F906000F4B1B6D9B0500D580E746
:10113000FFF7BEF9801B134B9842F4D90320C8E790
:1011400008490A6810480240C02080030340134346
:101150000B6076E70A008B6B0C490B4093637BE7CF
:101160000020B6E70010024000700040FFFFFCFFC7
:10117000FFFFF7FFFFF3FFFFFFCFFFFFFFFFFFFBC7
:10118000FFFFF3FF88130000FFFFCFFFFFFFFFEF1C
:1011900003688022D205904205D0124A904202D0C4
:1011A000114A904203D1702293434A68134380222C
:1011B000D205904205D00B4A904202D00A4A904292
:1011C00003D10A4A1340CA681343802293430A6931
:1011D000134303608B68C3620B688362012343611E
:1011E0007047C0460008014000140140FFFCFFFFAB
:1011F00030B5036A046A0125AC4304628469EF35A3
:10120000AC43120122430A24A343194382610162C1
:1012100030BD000030B5036A1024A3430362846923
:10122000036A054D2C4012032243A024A343090165
:1012300019438261016230BDFF0FFFFF0B0081681F
:1012400070229143194307231943816070470000BE
:1012500030B58468034D2C401B021A4311432143CF
:10126000816030BDFF00FFFF70B5041E14D039232C
:10127000C35C002B0AD0392502236355211D206849
:10128000FFF786FF01236355002070BD383300222D
:10129000C25401F035F9EEE70120F6E70268D368A1
:1012A00001210B43D3600268916807230B40062B92
:1012B00003D0136801210B43136000207047000026
:1012C0000268D36801218B43D3600368196A044A1A
:1012D000114203D11A6801218A431A600020704725
:1012E0001111000010B504003823C35C012B66D037
:1012F00038230122C25401330132C2540268936878
:101300003048034093600B68402B4ED015D9602BBA
:1013100041D021D9702B2BD080229201934232D11F
:10132000CB684A6889682068FFF792FF2268916855
:101330008023DB010B43936025E0102B07D004D9F9
:10134000202B04D0302B02D01DE0002B1BD1190024
:101350002068FFF773FF16E0502B14D1CA68496864
:101360002068FFF745FF50212068FFF767FF0AE07C
:10137000CB684A6889682068FFF76AFF226893682B
:1013800077210B43936039230122E254013B002271
:10139000E254002010BDCA6849682068FFF73AFF90
:1013A00060212068FFF74AFFEDE7CA6849682068B6
:1013B000FFF71EFF40212068FFF740FFE3E7022010
:1013C000E8E7C0468800FFFF7047704770477047E6
:1013D000704710B5040003681A6992070FD5DA68E0
:1013E00092070CD5032252421A6101230376036847
:1013F0009B699B0755D0FFF7E9FF002323762368FD
:101400001A69520712D5DA6852070FD505225242DF
:101410001A610223237623689A69C0239B001A422B
:1014200045D02000FFF7D2FF0023237623681A69F6
:10143000120710D5DA6812070DD5092252421A6137
:10144000042323762368DB699B0737D02000FFF74E
:10145000BDFF0023237623681A69D20612D5DA6805
:10146000D2060FD5112252421A610823237623682F
:10147000DA69C0239B001A4227D02000FFF7A6FF9D
:101480000023237623681A69D20702D5DA68D207C7
:1014900022D423681A69520602D5DA68520622D489
:1014A00010BDFFF792FF2000FFF791FFA5E7200096
:1014B000FFF78BFF2000FFF78AFFB5E72000FFF75B
:1014C00084FF2000FFF783FFC3E72000FFF77DFFC5
:1014D0002000FFF77CFFD3E7022252421A6120006E
:1014E000FFF772FFD5E7412252421A612000FFF751
:1014F0006FFFD5E7F0B53823C35C012B1BD038262E
:1015000001239C46835539270133C355026854682B
:1015100093687025AC430D682C438025AB431D00B8
:101520004B682B435460026893606346C3550023A5
:1015300083550020F0BD0220FCE70000026813681C
:1015400006490B401360026893682331FF318B43D7
:10155000936020238367002303667047DFFEFFFF4D
:10156000436F212B00D070473133C35A9BB2002BFD
:101570000CD0C36C1A7803689A62C36C0133C364DD
:101580005222835A013B9BB28352ECE702681368F4
:1015900080218B4313600268136840390B4313604A
:1015A000E1E7436F212B00D070473133C35A9BB220
:1015B000002B0ED0C36C1B880268DB05DB0D936229
:1015C000C36C0233C3645222835A013B9BB28352E1
:1015D000EAE70268136880218B431360026813688E
:1015E00040390B431360DFE730B5436F202B36D112
:1015F000002936D0002A36D0836880246401A342B3
:1016000020D07024045D012C2FD0702401250555B5
:10161000C164502142520231425200224266C267E6
:101620002132426780225201934212D0104B43660E
:1016300070230022C2540268136880210B43136098
:1016400000200DE00469002CDBD1CC07D9D50120A6
:1016500006E00369002BE9D1064B4366E8E7022068
:1016600030BD0120FCE70120FAE70220F8E7C04680
:1016700061150008A315000830B5836F202B6DD1CC
:10168000002900D16CE0002A00D16BE0836880243F
:101690006401A3421AD07024045D012C64D070242C
:1016A000012505554165582142520231425200221E
:1016B00002668022520193420FD0002B1CD1036995
:1016C000002B15D15C33FF22C2521CE00469002CB0
:1016D000E1D1CC07DFD5012041E00369002B03D124
:1016E0005C33224AC2520EE05C23FF22C2520AE05F
:1016F0005C237F22C25206E08022520593421CD016
:101700005C230022C2520023C3672233836702682E
:10171000936801210B43936080235B0182689A42A6
:1017200016D0134B036670230022C254026811685E
:10173000B0330B431360002011E00369002B03D189
:101740005C337F22C252DEE75C233F22C252DAE7DB
:101750000369002BE5D1074B0366E4E7022030BDA7
:101760000120FCE70120FAE70220F8E7FF01000072
:1017700095170008F917000810B502681368402192
:101780008B431360202343670023436600F032FD40
:1017900010BD000010B55C23C35A826F222A05D009
:1017A0000268936908210B43936110BD0268526A75
:1017B000DBB21340426D1370436D013343655A220F
:1017C000835A013B9BB28352835A9BB2002BECD1CC
:1017D0000268136807490B4013600268936823315D
:1017E000FF318B439360202383670023036600F05F
:1017F00003FDDAE7DFFEFFFF10B55C23C25A836FFB
:10180000222B05D00268936908210B43936110BD18
:1018100003685B6A1340426D1380436D0233436576
:101820005A22835A013B9BB28352835A9BB2002BAC
:10183000EDD10268136808490B4013600268936891
:101840002331FF318B43936020238367002303669A
:1018500000F0D2FCDBE7C046DFFEFFFF7047000070
:1018600070B504000168CB6908688D680F221A40C2
:101870000AD19E0608D5860606D5236E002B00D118
:1018800089E02000984786E0002A6BD001222A4098
:1018900003D190267600304264D0DD0706D5C50519
:1018A00004D501250D62E16F2943E167990708D549
:1018B000002A06D0216802250D62E16F0235294316
:1018C000E167590708D5002A06D0216804250D6272
:1018D000E16F023D2943E167190709D5810601D46B
:1018E000002A05D0226808211162E26F0A43E267EC
:1018F000E26F002A4FD09B0606D5830604D5236EDF
:10190000002B01D020009847E26F23689B685B069C
:1019100001D4130720D52000FFF710FE23689A6832
:10192000520615D59A6840218A439A60E36E002BCF
:101930000AD01B4A9A63E06EFEF724FE00282AD0E4
:10194000E06E836B984726E02000FFF787FF22E0D8
:101950002000FFF783FF1EE02000FFF77FFF00233A
:10196000E36718E0DA0201D56A0209D41A060ED537
:1019700002060CD5636E002B0DD0200098470AE0BC
:1019800080235B030B62200000F050FB03E05B064A
:1019900001D5430600D470BD2000FFF7EDFEFAE745
:1019A000A519000810B5806A00235A228352083A0C
:1019B0008352FFF753FF10BDD0B504000168836860
:1019C0000269134342691343C26913430A68C0485A
:1019D000024013430B6022685368BE490B40E16824
:1019E0000B435360A1692268BB4B9A4201D0236A22
:1019F00019439368B94803400B4393602268B84B7E
:101A00009A4216D0B74B9A4227D0B34B9A4239D05C
:101A10001023B1498A4257D080221202E1699142D3
:101A200000D18CE0082B00D949E19B00AE4AD35885
:101A30009F46AE4BD96C03230B40012B09D0002BE2
:101A400005D0022B3AD0032B05D01023E1E7012368
:101A5000DFE70423DDE70823DBE7A44BD96C0C2385
:101A60000B40042B0AD005D9082B29D00C2B07D109
:101A70000823CEE7002B03D10023CAE70423C8E7DD
:101A80001023C6E7994BDB6CC02109010B40802174
:101A9000C9008B420ED009D9802109018B4211D097
:101AA000C02109018B4207D10823B2E7002B03D1E3
:101AB0000023AEE70423ACE71023AAE70223A8E73C
:101AC0000223A6E70223A4E7022B2DD007D9042B7B
:101AD00030D0082B00D0F5E08020000207E0002B7A
:101AE00000D0EFE0FFF736FA002800D1ECE06268A2
:101AF00053009B18834200D9E8E01303834200D2CD
:101B000006E1070E060250080021801979410023E2
:101B1000FEF786FB764BC218764B9A4200D9F9E065
:101B20002368D860002085E0704B1B68DB0604D476
:101B30007148DCE7FEF71EFED6E77048D7E7082BB2
:101B400062D89B006E4AD3589F46FFF703FA4000C5
:101B500063685B08C0186168FEF7D6FA03041B0CC3
:101B6000002068491A00103A8A4200D9D4E00F22B6
:101B7000190091435B08083A13400B432268D36075
:101B800058E0FFF7F7F9400063685B08C018616828
:101B9000FEF7BAFA03041B0C0020E2E7534B1B6864
:101BA000DB060BD563685808574B9C466044616858
:101BB000FEF7AAFA03041B0C0020D2E7636858085A
:101BC000524B9C4660446168FEF79EFA03041B0C6E
:101BD0000020C6E7FEF7CEFD400063685B08C01832
:101BE0006168FEF791FA03041B0C0020B9E76368F3
:101BF000580880235B029C4660446168FEF784FAC3
:101C000003041B0C0020ACE701200023A9E7FFF729
:101C1000A1F963685B08C0186168FEF775FA0304F0
:101C20001B0C002037491A00103A8A4200D975E08F
:101C30002268D360002323666366D0BDFFF79AF95C
:101C400063685B08C0186168FEF75EFA03041B0C4A
:101C50000020E7E7254B1B68DB060BD563685808B7
:101C6000264B9C4660446168FEF74EFA03041B0C49
:101C70000020D7E7636858081F4B9C4660446168A2
:101C8000FEF742FA03041B0C0020CBE7FEF772FDBF
:101C900063685B08C0186168FEF736FA03041B0C22
:101CA0000020BFE76368580880231B029C466044FD
:101CB0006168FEF729FA03041B0C0020B2E701203B
:101CC0000023AFE70120B5E70020B3E70120B1E72B
:101CD000F369FFEFFFCFFFFF00480040FFF4FFFF75
:101CE000003801400044004060300008001002400D
:101CF00000FDFFFFFFFC0F000024F40000093D0081
:101D000084300008EFFF000000127A000048E8016C
:101D100001208FE701208DE701208BE7012089E773
:101D2000436ADB0706D5026853682C490B40816A79
:101D30000B435360436A9B0706D5026853682849E2
:101D40000B40C16A0B435360436A5B0706D50268C8
:101D5000536824490B40016B0B435360436A1B07D4
:101D600006D50268536820490B40416B0B43536012
:101D7000436ADB0606D5026893681C490B40816BF9
:101D80000B439360436A9B0606D502689368184923
:101D90000B40C16B0B439360436A5B060BD5026833
:101DA000536814490B40016C0B43536080235B0361
:101DB000026C9A420AD0436A1B0606D50268536831
:101DC0000D490B40816C0B435360704702685368A8
:101DD0000A490B40416C0B435360ECE7FFFFFDFFEA
:101DE000FFFFFEFFFFFFFBFFFF7FFFFFFFEFFFFF98
:101DF000FFDFFFFFFFFFEFFFFFFFF7FFFFFF9FFF8B
:101E0000F0B5C64600B506000C0017009846069DC2
:101E10003368DB6923401B1B5A425341BB421CD130
:101E20006B1CF5D0FEF744FB4346C01AA84201D80C
:101E3000002DEDD1326813680A490B4013603268F7
:101E40009368A331FF318B43936020237367B3679B
:101E500050330022F254032000E0002004BC9046DE
:101E6000F0BDC0465FFEFFFFF0B585B004000E0078
:101E700017001D00436F202B5FD1002960D0002A7E
:101E800060D080235B0182689A4218D07023E35CA3
:101E9000012B59D070230122E2540023E367213340
:101EA0006367FEF705FB03905023E7520233E752C6
:101EB00080235B01A2689A4208D0002716E00369DC
:101EC000002BE3D1CB07E1D5012037E02369002BBC
:101ED00021D000270AE03B882268DB05DB0D9362F6
:101EE00002375222A35A013B9BB2A3525223E35A18
:101EF0009BB2002B12D00095039B00228021200072
:101F0000FFF77EFF002821D1002EE4D0327823682D
:101F10009A620136E5E737000026E7E70095039B64
:101F2000002240212000FFF76BFF002810D1202362
:101F3000636750330022E25400E0022005B0F0BD98
:101F40000120FBE70120F9E70220F7E70320F5E78E
:101F50000320F3E730B583B004000023C367FEF726
:101F6000A7FA050023681B681B070CD423681B68AD
:101F70005B0715D420236367A36750330022E25424
:101F8000002003B030BD80210C4B009303000022E1
:101F900089032000FFF734FF0028E7D00320F0E793
:101FA0008021064B00932B000022C9032000FFF77D
:101FB00027FF0028DED00320E3E7C046FFFFFF0134
:101FC00010B5041E2ED0436F002B21D0242363674D
:101FD0002268136801218B4313602000FFF7ECFC9B
:101FE000012814D0636A002B18D1226853680E4967
:101FF0000B405360226893682A218B4393602268C8
:10200000136829390B4313602000FFF7A3FF10BDAD
:1020100070330022C25400F09DFAD7E72000FFF78A
:102020007FFEE2E70120F2E7FFB7FFFF7047000005
:10203000F0B589B01422002103A800F0F5FB224B73
:10204000D96A04221143D962D96A0A400092009ADF
:10205000DA6A80273A43DA62DA6A3A400192019AF0
:10206000DA6A01252A43DA62DB6A2B400293029B7B
:1020700000222021A020C005FEF772FB134E002293
:1020800080213000FEF76CFB80239B010393104BF3
:1020900004930024059403A93000FEF79BFA202343
:1020A000039304950594069403A9A020C005FEF7A8
:1020B00091FA039704950594069403A93000FEF75E
:1020C00089FA09B0F0BDC046001002400008005077
:1020D0000000211010B50948094B0360E1235B02A1
:1020E000436000238360C36003610C22426183610B
:1020F000C36103624362FFF763FF10BD0C11002050
:102100000044004010B50948094B0360E1235B021D
:10211000436000238360C36003610C2242618361DA
:10212000C36103624362FFF74BFF10BD50100020F4
:102130000038014030B587B01022002102A800F01D
:1021400073FB08220021684600F06EFB0F4C8023D1
:10215000DB0523600E4B63600025A560FA23DB00DE
:10216000E3602561802363612000FFF77DF8802311
:102170005B01029302A92000FFF7B4F800950195D6
:1021800069462000FFF7B6F907B030BDD010002037
:102190009F0F000030B587B01022002102A800F088
:1021A00043FB08220021684600F03EFB0E4C0F4B1B
:1021B00023600F4B63600025A560FA239B00E3605A
:1021C000256165612000FFF74FF880235B010293D2
:1021D00002A92000FFF786F80095019569462000C6
:1021E000FFF788F907B030BD8C11002000080140CE
:1021F0009F0F00007047000010B5234B02689A4201
:1022000004D00268214B9A4204D010BD204B00221A
:102210001A70F6E71E4B5B78002B12D11D4B1B7812
:10222000402B1BD11A4C6278D2B21B498B54637875
:102230000133DBB263701948FFF730F80023A37055
:102240000CE0144B197823290ED0114A5378DBB2D5
:102250001148C15453780133DBB2537001220D4948
:102260000F48FFF709FAD0E7094C6378DBB20A4A56
:10227000D15463780133DBB263700848FFF720F86C
:102280000123A370EAE7C046003801400044004043
:10229000900000204C100020940400208C1100209D
:1022A0000C11002070B5404B9B78002B7AD03E4B30
:1022B0009B78012B18D03C4B9B78022B2ED03A4BAD
:1022C0009B78002B03D0384B5B78002B5BD13749D0
:1022D0000A230B70364B01223648FFF7C5FD324BFF
:1022E00000229A70002355E02F4B5B78002BE2D040
:1022F0002E4C314B220023CB23C219001B681360E4
:102300008B8893808B7993712000FEF795F882B2C9
:10231000274B21002748FFF7A7FDCCE7224B5B782E
:10232000002BCCD0214C254923000A0023CA23C30B
:1023300003CA03C31188198092789A702000FEF7AF
:102340007BF882B21A4B21001A48FFF78DFDB6E7E1
:102350001B4B1A5DD2B21B5DDBB2144D194928002C
:1023600000F06AFA2800FEF767F882B2104B2900E5
:102370001048FFF779FD0134E4B20B4B5B78DBB218
:10238000A342E5D8A3E70024F7E70D4A0021D15482
:102390000133DBB2044A5278D2B29A42F5D8024BEA
:1023A00000225A7070BDC0469000002094000020AA
:1023B000881300000C110020D0300008CC30000839
:1023C00094040020E430000830B59DB0382200218C
:1023D0000EA800F029FA1422002109A800F024FA1E
:1023E00024220021684600F01FFA15490B68154A9F
:1023F0001A4080231B0113430B6002230E93092212
:102400001192073212921893002419941A9480237F
:102410001B041B930EA8FEF705FA0F23099303254F
:102420000A950B940C940D94002109A8FEF7B8FCB2
:102430000095039404946846FEF7ACFD1DB030BDD2
:1024400000700040FFE7FFFF10B5FEF715F8FFF73B
:10245000BBFFFFF7EDFDFFF73DFEFFF753FEFFF774
:1024600069FEFFF797FE194C012219492000FFF77A
:1024700003F90A2217492000FFF7B6F81648FEF7BD
:102480000DFF0FE0A02001222021C005FEF768F912
:102490000CE0104B9B7A022B12D06420FEF70EF852
:1024A000FFF700FF0D4B1B78002BEBD0094B9B7AFD
:1024B000002BEED1002280210948FEF751F9E8E710
:1024C000012280210648FEF74BF9E6E70C110020B7
:1024D0004C10002000000020D010002090000020B0
:1024E00000080050054B5A6B01210A435A63996B4F
:1024F000802252050A439A637047C046001002408A
:1025000010B503688022D205934203D00F4A93424C
:102510000ED010BD0E4A936B01210B439363002232
:1025200000210F20FDF7D8FF0F20FEF705F8F0E798
:10253000074A536B04210B435363002200211420EC
:10254000FDF7CAFF1420FDF7F7FFE2E7000801409E
:102550000010024010B588B004001422002103A826
:1025600000F062F92368284A934204D0274A934234
:1025700026D008B010BD264B596B8022D2010A43E9
:102580005A63D96A01221143D962DB6A1A40019267
:10259000019BC023DB0003930223049301330693C2
:1025A00001330793A02003A9C005FEF713F800220A
:1025B00000211B20FDF790FF1B20FDF7BDFFD8E792
:1025C000134B996B802292020A439A63D96A0122C3
:1025D0001143D962DB6A1A400292029B0C230393D7
:1025E0000A3B04930133069301330793A02003A908
:1025F000C005FDF7EFFF002200211C20FDF76CFF56
:102600001C20FDF799FFB4E700380140004400406A
:10261000001002407047FEE77047704710B5FDF7A5
:102620003FFF164B1B78DBB2012B08D9144A1388E5
:1026300001339BB21380FA225200934204D8114B0B
:102640001B78012B09D010BDA0202021C005FEF76A
:102650008DF80B4B00221A80F1E7094A53880133A9
:102660009BB25380FA2252009342ECD98021064853
:10267000FEF77CF8024B00225A80E4E7900000202D
:102680007C0400200A0000200008005010B5044817
:10269000FEF79FFE034A13780133DBB2137010BDBF
:1026A000D01000209000002010B5054C2000FEF74F
:1026B00090FE044B02221A702000FEF701FE10BDAE
:1026C0008C1100209200002010B50248FFF7C8F8D6
:1026D00010BDC0465010002010B50248FFF7C0F8EA
:1026E00010BDC0460C11002010B503000B4A126843
:1026F000002A08D0094A1068C3186A46934206D8CF
:10270000064A136010BD054A05491160F2E700F062
:1027100061F80C23036001204042F3E780040020AD
:10272000D0110020104B1968802252000A431A6011
:10273000DA680E490A40DA601A680D490A401A60E0
:102740009A6801218A439A601A680A490A401A6005
:10275000DA6809490A40DA6000221A61074B8022D0
:1027600012059A607047C046001002400C40FF8876
:10277000F6FFF6FEFFFFFBFFFFFF02FF00ED00E0AC
:102780000D488546002103E00C4B5B584350043153
:102790000B480C4B42189A42F6D30B4A02E0002336
:1027A00013600432094B9A42F9D3FFF7BBFF00F0E4
:1027B00017F8FFF749FEFEE700200020343100083B
:1027C000000000207400002074000020CC110020C4
:1027D000FEE70000014B18687047C046100000205B
:1027E00070B500260C4D0D4C641BA410A64209D1F7
:1027F000002600F029FC0A4D0A4C641BA410A642D6
:1028000005D170BDB300EB5898470136EEE7B30031
:10281000EB5898470136F2E72C3100082C310008BC
:102820002C3100083031000803001218934200D107
:10283000704719700133F9E70EB400B50B499CB02D
:102840001DAB02900690079104910948094904CBF9
:102850000591006802A9019300F070F80023029A24
:1028600013701CB008BC03B01847C046FFFFFF7FC1
:10287000100000200802FFFFF0B58E6885B0070049
:102880000C00039201939E423CD890238A89DB007E
:102890001A4234D00325096923685B1A02936369DD
:1028A00002985D43EB0F5D19019B6D1001331B18FE
:1028B000AB4200D91D00530532D52900380000F085
:1028C00023FB061E09D10C233B6040230120A28973
:1028D00040421343A38105B0F0BD029A216900F084
:1028E000ACFAA389144A1A4080231343A381029BA4
:1028F0002661F61826606561019EED1AA560019BB0
:102900009E4200D9019E32000399206800F09EFA91
:10291000A36800209B1BA36023689E192660DAE74A
:102920002A00380000F04EFB061EE0D12169380075
:1029300000F0A0FAC7E7C0467FFBFFFFF0B5A1B0EB
:1029400003901D008B890F0016001B0611D50B6923
:10295000002B0ED1402100F0D7FA386038610028F2
:1029600005D10C23039A0138136021B0F0BD402338
:102970007B61002308AC6361203363761033A37658
:10298000079535002B78002B01D0252B46D1AB1BAA
:1029900005930CD0320039000398FFF76DFF431CFC
:1029A00000D1AEE06269059B9446634463612B7875
:1029B000002B00D1A5E0012200235242626004A94D
:1029C000543252186E1C2360E360A3601370A36539
:1029D00031780522534800F025FA751C00281FD1D4
:1029E0002268D30604D5532304A95B18202119704B
:1029F000130704D5532304A95B182B2119703378CE
:102A00002A2B16D0350000210A20E3682A786E1C94
:102A1000303A092A4ED9002918D010E00135B1E723
:102A2000404B2268C01A01238340134323602E00C9
:102A3000CEE7079B191D1B680791002B01DB0B9349
:102A400004E05B42E3600223134323602B782E2BC8
:102A50000AD16B782A2B35D1079B02351A1D1B68CA
:102A60000792002B2BDB09932F4E2978032230008D
:102A700000F0D8F9002806D04023801B834022684C
:102A80000135134323602978062228486E1C2176DD
:102A900000F0C8F900283CD0254B002B25D1072297
:102AA000079B07339343083307936369049A9B1882
:102AB000636166E7434301219B183500A6E70123C4
:102AC0005B42D0E700230A201A00013563602978B1
:102AD0006E1C3039092903D9002BC5D00992C3E7F0
:102AE0004243012352183500F1E707AB00933A0047
:102AF000104B2100039800E000BF0490049B0133B9
:102B0000D3D1BB890D985B0600D42EE7012040424B
:102B10002BE707AB00933A00064B2100039800F027
:102B200079F8EAE7F0300008F6300008FA300008DB
:102B30000000000079280008F7B5150001938A68A5
:102B40000B6900900C00934200DA130022002B6006
:102B500043321278002A01D001332B6023689B0690
:102B600002D52B6802332B60062723681F4027D02D
:102B7000230043331B785A1E93412268920630D4B7
:102B80002200019943320098089EB047431C25D08B
:102B9000062320682A68E16803400025042B03D13E
:102BA0008D1AEB43DB171D40A3682269934201DDB8
:102BB0009B1AED180027BD4220D1002010E00137FC
:102BC000E3682A689B1ABB42D2DD22000123193236
:102BD00001990098089EB047431CF0D10120404263
:102BE000FEBD3020E1184331087021005A1C4531E8
:102BF0000978A218433202331170C1E72200012381
:102C00001A3201990098089EB047431CE6D001375C
:102C1000D1E70000F0B589B004920A004332059371
:102C2000039002920A7E0C000E9B6E2A00D186E071
:102C30001FD8632A33D008D8002A00D18CE0582A44
:102C40004DD0250042352A7030E0642A01D0692A2F
:102C5000F7D1196825680A1D280629D508681A6061
:102C6000002803DA2D23029A404213706B4E0A2784
:102C70004FE0732A74D008D86F2A1FD0702AE0D191
:102C8000202209680A43226003E0752A16D0782AB8
:102C9000D7D12200782145321170614E22E0250003
:102CA0001A684235111D196013682B70012365E005
:102CB00008681A606906D3D500B2D1E7196825689B
:102CC000081D186008682E0605D5544E08276F2A7F
:102CD0001BD00A2719E06D06F7D580B2F5E745311C
:102CE0004E4E0A7018682268011D006819601506AA
:102CF00021D5D30702D520231A43226010270028AC
:102D000003D1202322689A43226023000022433308
:102D10001A706368A360002B58DB0422216891437A
:102D20002160002854D1029D002B5AD02500337811
:102D300042352B7055E05506DBD580B2D9E71A68CD
:102D40000D68101D4969186013682E0601D51960B9
:102D500002E06D06FBD519800023029D23614FE040
:102D60001A68111D1960156800216268280000F0BA
:102D700059F8002801D0401B60606368236100237C
:102D8000029A13703CE023692A0004990398059D78
:102D9000A847431C3ED023689B0715D4079BE068D7
:102DA000984239DA180037E02200012319320499D9
:102DB0000398059EB047431C2CD00135E368079A61
:102DC0009B1AAB42F0DCE9E70025F7E70028ADD01D
:102DD000029D3900FDF71EFA735C013D2B7000283F
:102DE000F7D1082F09D12368DB0706D5636822696C
:102DF000934202DC3023013D2B70029B5B1B23615D
:102E0000059B07AA00932100049B0398FFF794FEFB
:102E1000431CB8D10120404209B0F0BD0131000887
:102E200012310008C9B28218904201D100207047C7
:102E300003788B42FBD00130F6E7002310B59A42AD
:102E400000D110BDCC5CC4540133F8E710B5884202
:102E500002D98B18984203D3002307E08B5C83547C
:102E6000013AFBD210BDCC5CC45401339A42FAD172
:102E7000F8E7000070B50500002910D00C1F23688A
:102E8000002B00DAE418280000F0D4F81D4A13687B
:102E9000002B05D163601460280000F0CCF870BDF1
:102EA000A34209D9216860188342F3D118685B688E
:102EB00041182160EEE713005A68002A01D0A242AF
:102EC000F9D919685818A0420BD120680918581868
:102ED00019608242E0D110685268411819605A6046
:102EE000DAE7A04202D90C232B60D5E721686018ED
:102EF000824203D1106852684118216062605C60B0
:102F0000CAE7C04688040020032370B5CD1C9D434A
:102F1000083506000C2D1ED20C25A9421DD8300004
:102F200000F088F8254A14682100002919D1244CA2
:102F30002368002B03D1300000F06AF820602900DC
:102F4000300000F065F8431C2BD10C2330003360B7
:102F500000F071F803E0002DDFDA0C23336000206D
:102F600070BD0B685B1B19D40B2B03D90B60CC18FD
:102F7000256003E04B688C420DD11360300000F0F7
:102F80005AF8200007220B30231D9043C31AE7D0C4
:102F90005A42E250E4E763600C00EFE70C00496836
:102FA000C3E70323C41C9C43A042E1D0211A300094
:102FB00000F02EF8431CDBD1C7E7C0468804002090
:102FC0008C040020F8B507000D001600002905D17B
:102FD0001100FFF799FF04002000F8BD002A03D17B
:102FE000FFF748FF3400F7E700F026F82C00B04266
:102FF000F2D231003800FFF787FF041EECD0290021
:103000003200FFF71AFF29003800FFF733FFE3E72C
:10301000002370B5064C050008002360FFF764FB31
:10302000431C03D12368002B00D02B6070BDC04629
:10303000C8110020704770470B1F1B68181F002B1A
:1030400001DA0B58C0187047F8B5C046F8BC08BC88
:103050009E467047F8B5C046F8BC08BC9E4670470F
:103060000E1C00083C1C0008541C0008BE1C000874
:103070008C1C0008BE1C0008BE1C0008BE1C0008FA
:10308000A41C00084A1B0008821B00089C1B0008A7
:10309000081C0008D41B0008081C0008081C0008B5
:1030A000081C0008EE1B0008030406080C1018207A
:1030B00030000000000000000000000001020304D6
:1030C00006070809000000000102030442414420F1
:1030D000436F6D6D616E64205245434549564544CA
:1030E0003A20000025642028256329202D20000097
:1030F000232D302B2000686C4C00656667454647E1
:103100000030313233343536373839414243444563
:1031100046003031323334353637383961626364D2
:0431200065660000E0
:083124003CD1FF7F0100000017
:04312C00E9000008AE
:04313000C1000008D2
:10313400454D43552E45550D0A00FF000000200063
:103144001400002000000000000000000000000047
:10315400000000000000000000000000000000006B
:10316400000000000000000000000000000000005B
:10317400000000000000000000000000000000004B
:10318400000000000000000000000000000000003B
:10319400000000000000000000000000000000002B
:0431A4000000000027
:040000050800278147
:00000001FF
